:020000040800F2
:10000000E00B00201D6500088D6200088F6200086B
:1000100091620008936200089562000800000000E9
:1000200000000000000000000000000097620008CF
:1000300099620008000000009B6200089D620008B1
:100040005D65000861650008656500086965000870
:100050006D65000871650008756500087965000820
:10006000D16200088165000885650008896500087F
:100070008D65000891650008956500089965000880
:100080009D650008A1650008A5650008A965000830
:10009000AD650008B1650008B5650008B9650008E0
:1000A000BD650008C1650008C5650008C965000890
:1000B000CD650008D1650008D5650008D965000840
:1000C000DD650008E1650008E5650008E9650008F0
:1000D000ED650008F1650008F5650008F9650008A0
:1000E000FD6500080166000805660008096600084D
:1000F0000D660008116600081566000819660008FC
:100100001D660008216600082566000829660008AB
:100110002D6600083166000835660008396600085B
:100120003D6600084166000845660008496600080B
:100130004D660008516600085566000859660008BB
:100140005D6600086166000865660008696600086B
:100150006D6600087166000875660008796600081B
:100160007D660008816600088566000889660008CB
:100170008D66000891660008A16200089966000873
:100180009D66000800000000000000000000000064
:10019000000000000000000000000000000000005F
:1001A000000000000000000000000000000000004F
:1001B00000000000000080018001800180018001BA
:1001C0008001800180018001800180018001800127
:1001D000000000008001800100000000000000001D
:1001E0000000000000000000CC00CC00CC00CC00DF
:1001F000CC00CC0000000000000000000000000067
:1002000000000000000000000000000000000000EE
:1002100000000000000000000000000000000000DE
:10022000600C600C600C30063006FE1FFE1F3006AE
:1002300038071803FE1FFE1F180318038C018C01DA
:100240008C01000000008000E003F80F9C0E8C1C65
:100250008C188C009800F801E007800E801C8C1828
:100260008C189C18B80CF00FE00380008000000090
:10027000000000000000000000000E181B0C110C14
:1002800011061106110311039B018E01C038C06CC9
:1002900060446044304430441844186C0C3800000A
:1002A000000000000000E001F003380718061806FF
:1002B0003003F001F000F8009C310E33061E061CDE
:1002C000061C063FFC73F021000000000000000047
:1002D00000000000000000000C000C000C000C00EE
:1002E0000C000C00000000000000000000000000F6
:1002F00000000000000000000000000000000000FE
:10030000000000000000000200038001C000C000E7
:1003100060006000300030003000300030003000FD
:100320003000300060006000C000C00080010003A9
:1003300000020000000020006000C0008001800179
:100340000003000300060006000600060006000683
:10035000000600060003000380018001C000600069
:10036000200000000000000000000000000000006D
:10037000C000C000D806F807E001300338070000CD
:10038000000000000000000000000000000000006D
:10039000000000000000000000000000000000005D
:1003A00080018001800180018001FC3FFC3F8001D1
:1003B0008001800180018001000000000000000039
:1003C000000000000000000000000000000000002D
:1003D000000000000000000000000000000000001D
:1003E0000000000000008001800100010001800089
:1003F00000000000000000000000000000000000FD
:10040000000000000000000000000000E007E0071E
:1004100000000000000000000000000000000000DC
:1004200000000000000000000000000000000000CC
:1004300000000000000000000000000000000000BC
:10044000000000000000C000C0000000000000002C
:10045000000000000000000C000C00060006000672
:100460000003000300038003800180018001C000BD
:10047000C000C0006000600000000000000000003C
:10048000000000000000E003F007380E180C0C1804
:100490000C180C180C180C180C180C180C180C183C
:1004A000180C380EF007E003000000000000000008
:1004B00000000000000000018001C001F00198016F
:1004C000880180018001800180018001800180011C
:1004D0008001800180018001000000000000000018
:1004E000000000000000E003F80F180C0C180C18B6
:1004F00000180018000C000600038001C000600016
:1005000030001800FC1FFC1F00000000000000006D
:10051000000000000000E001F807180E0C0C0C0CA5
:10052000000C0006C003C007000C001800180C18CF
:100530000C18180CF807E003000000000000000091
:10054000000000000000000C000E000F000F800DE6
:10055000C00C600C600C300C180C0C0CFC3FFC3F09
:10056000000C000C000C000C00000000000000005B
:10057000000000000000F80FF80F180018000C0031
:10058000EC03FC071C0E001C0018001800180C18C7
:100590001C0C180EF807E00300000000000000002B
:1005A000000000000000C007F00F381C18181800E9
:1005B0000C00CC03EC0F3C0E1C1C0C180C180C1877
:1005C000181C380EF007E0030000000000000000D7
:1005D000000000000000FC1FFC1F000C00060006CD
:1005E000000380038001C001C000E00060006000E3
:1005F00070003000300030000000000000000000FB
:10060000000000000000E003F007380E180C180C82
:10061000180C3806F007F007180C0C180C180C18FA
:100620000C18380CF80FE003000000000000000078
:10063000000000000000E003F007380E1C0C0C184E
:100640000C180C181C1C381EF81BE0190018000CA4
:10065000000C1C0EF807F001000000000000000074
:10066000000000000000000000000000000000008A
:100670008001800100000000000000000000000078
:100680000000000080018001000000000000000068
:10069000000000000000000000000000000000005A
:1006A0008001800100000000000000000000000048
:1006B00000000000800180010001000180000000B6
:1006C000000000000000000000000000000000002A
:1006D000000000000010001C800FE003F80018006C
:1006E000F800E003800F001C001000000000000074
:1006F00000000000000000000000000000000000FA
:1007000000000000F81F000000000000F81F0000BB
:1007100000000000000000000000000000000000D9
:1007200000000000000000000000000000000000C9
:100730000000000008003800F001C007001F00188A
:10074000001FC007F0013800080000000000000092
:10075000000000000000E003F80F180C0C180C1843
:100760000018000C000600038001C000C000C0009B
:1007700000000000C000C0000000000000000000F9
:100780000000000000000000E00718180420C22943
:10079000224A114409440944094409221113E20C74
:1007A000024004201818E0070000000000000000CC
:1007B00000000000000080038003C006C006C006E1
:1007C000600C600C301830183018F83FF83F1C707F
:1007D0000C600C6006C006C00000000000000000B5
:1007E000000000000000FC03FC0F0C0C0C180C189F
:1007F0000C180C0CFC07FC0F0C180C300C300C30D7
:100800000C300C18FC1FFC0700000000000000006A
:10081000000000000000C007F01F38381C300C70CA
:1008200006600600060006000600060006000660D8
:100830000C701C30F01FE0070000000000000000FA
:10084000000000000000FE03FE0F060E061806184A
:100850000630063006300630063006300630061800
:100860000618060EFE0FFE03000000000000000048
:10087000000000000000FC3FFC3F0C000C000C00DE
:100880000C000C00FC1FFC1F0C000C000C000C00EA
:100890000C000C00FC3FFC3F0000000000000000CA
:1008A000000000000000F83FF83F18001800180092
:1008B00018001800F81FF81F18001800180018007A
:1008C00018001800180018000000000000000000C8
:1008D000000000000000E00FF83F3C780E6006E0EA
:1008E00007C00300030003FE03FE03C007C006C0E9
:1008F0000EC03CF0F83FE00F0000000000000000D8
:100900000000000000000C300C300C300C300C30BB
:100910000C300C30FC3FFC3F0C300C300C300C30F9
:100920000C300C300C300C300000000000000000D7
:100930000000000000008001800180018001800132
:10094000800180018001800180018001800180019F
:100950008001800180018001000000000000000093
:100960000000000000000006000600060006000669
:10097000000600060006000600060006000618062F
:1009800018063807F003E001000000000000000036
:1009900000000000000006300618060C06060603DC
:1009A0008601C60066007600DE008E01060306069C
:1009B000060C06180630066000000000000000006B
:1009C00000000000000018001800180018001800AF
:1009D0001800180018001800180018001800180057
:1009E00018001800F81FF81F0000000000000000A9
:1009F0000000000000000EE01EF01EF01EF036D8D1
:100A000036D836D836D866CC66CC66CCC6C6C6C60E
:100A1000C6C6C6C686C386C300000000000000002C
:100A20000000000000000C301C303C303C306C30CA
:100A30006C30CC30CC308C310C330C330C360C3663
:100A40000C3C0C3C0C380C30000000000000000096
:100A5000000000000000E007F81F1C380E70066060
:100A600003C003C003C003C003C003C003C00660CB
:100A70000E701C38F81FE0070000000000000000A6
:100A8000000000000000FC0FFC1F0C380C300C3084
:100A90000C300C300C18FC1FFC070C000C000C0078
:100AA0000C000C000C000C00000000000000000016
:100AB000000000000000E007F81F1C380E70066000
:100AC00003E003C003C003C003C003C007E0066324
:100AD0000E3F1C3CF83FE0F700C0000000000000A3
:100AE000000000000000FE0FFE1F06380630063032
:100AF00006300638FE1FFE0706030606060C06181B
:100B000006180630063006600000000000000000F5
:100B1000000000000000E003F80F1C0C0C180C187B
:100B20000C001C00F803E00F001E003806300630F1
:100B30000E301C1CF80FE007000000000000000051
:100B4000000000000000FE7FFE7F80018001800128
:100B5000800180018001800180018001800180018D
:100B60008001800180018001000000000000000081
:100B70000000000000000C300C300C300C300C3049
:100B80000C300C300C300C300C300C300C300C3085
:100B90000C301818F81FE0070000000000000000EB
:100BA00000000000000003600630063006300C181C
:100BB0000C180C18180C180C380E3006300670077C
:100BC00060036003C001C0010000000000000000DD
:100BD0000000000000000360C361C361C3616633AD
:100BE000663366336633663366336C1B6C1B6C1B73
:100BF0002C1A3C1E380E380E0000000000000000C9
:100C00000000000000000FE00C7018303018700C6D
:100C1000600EC00780038003C003E006700C301C28
:100C200018180C300E6007E0000000000000000003
:100C300000000000000003C006600C301C383818AB
:100C4000300C6006E007C003800180018001800154
:100C50008001800180018001000000000000000090
:100C6000000000000000FC7FFC7F006000300018E6
:100C7000000C000600038001C00060003000180076
:100C80000C000600FE7FFE7F000000000000000058
:100C9000000000000000E003E0036000600060006E
:100CA0006000600060006000600060006000600044
:100CB0006000600060006000600060006000E003B1
:100CC000E0030000000030003000600060006000C1
:100CD000C000C000C000C00180018001800100038D
:100CE00000030003000600060000000000000000F2
:100CF000000000000000E003E00300030003000325
:100D000000030003000300030003000300030003CB
:100D10000003000300030003000300030003E003DB
:100D2000E003000000000000C001C0016003600398
:100D3000600330063006180C180C0000000000009C
:100D400000000000000000000000000000000000A3
:100D50000000000000000000000000000000000093
:100D60000000000000000000000000000000000083
:100D7000000000000000FFFFFFFF00000000000077
:100D80000000000000000C000C000C000C000C0027
:100D90000C00000000000000000000000000000047
:100DA0000000000000000000000000000000000043
:100DB0000000000000000000000000000000000033
:100DC000F003F8071C0C0C0C000FF00FF80C0C0CC7
:100DD0000C0C1C0FF80FF0180000000000000000C1
:100DE000000000000000180018001800180018008B
:100DF000D803F80F380C18181818181818181818DD
:100E00001818380CF80FD80300000000000000008C
:100E100000000000000000000000000000000000D2
:100E2000C003F007300E180C180018001800180046
:100E3000180C300EF007C003000000000000000096
:100E4000000000000000001800180018001800182A
:100E5000C01BF01F301C181818181818181818186C
:100E60001818301CF01FC01B00000000000000001C
:100E70000000000000000000000000000000000072
:100E8000C003F00F300C1818F81FF81F18001800D6
:100E90003818301CF00FC0070000000000000000F0
:100EA000000000000000800FC00FC000C000C000A4
:100EB000F007F007C000C000C000C000C000C000C4
:100EC000C000C000C000C000000000000000000022
:100ED0000000000000000000000000000000000012
:100EE000E00DF80F180E0C0C0C0C0C0C0C0C0C0C70
:100EF0000C0C180EF80FE00D000C0C0C1C06F8077B
:100F0000F001000000001800180018001800180078
:100F1000D807F80F381C18181818181818181818A7
:100F20001818181818181818000000000000000001
:100F3000000000000000C000C00000000000000031
:100F4000C000C000C000C000C000C000C000C000A1
:100F5000C000C000C000C000000000000000000091
:100F6000000000000000C000C00000000000000001
:100F7000C000C000C000C000C000C000C000C00071
:100F8000C000C000C000C000C000C000C000F80029
:100F90007800000000000C000C000C000C000C009D
:100FA0000C0C0C060C038C01CC006C00FC009C01AA
:100FB0008C030C030C060C0C000000000000000069
:100FC000000000000000C000C000C000C000C00061
:100FD000C000C000C000C000C000C000C000C00011
:100FE000C000C000C000C000000000000000000001
:100FF00000000000000000000000000000000000F1
:101000007C3CFF7EC7E383C183C183C183C183C1AD
:1010100083C183C183C183C10000000000000000C0
:1010200000000000000000000000000000000000C0
:101030009807F80F381C18181818181818181818C6
:1010400018181818181818180000000000000000E0
:101050000000000000000000000000000000000090
:10106000C003F00F300C1818181818181818181892
:101070001818300CF00FC003000000000000000042
:101080000000000000000000000000000000000060
:10109000D803F80F380C181818181818181818183A
:1010A0001818380CF80FD80318001800180018008A
:1010B0001800000000000000000000000000000018
:1010C000C01BF01F301C18181818181818181818FA
:1010D0001818301CF01FC01B00180018001800184A
:1010E00000180000000000000000000000000000E8
:1010F000B007F003700030003000300030003000E6
:10110000300030003000300000000000000000001F
:1011100000000000000000000000000000000000CF
:10112000E003F003380E180C3800F003C007000C81
:10113000180C380EF007E00300000000000000006B
:1011400000000000000000008000C000C000C000DF
:10115000F007F007C000C000C000C000C000C00021
:10116000C000C000C00780070000000000000000B1
:10117000000000000000000000000000000000006F
:1011800018181818181818181818181818181818DF
:101190001818381CF01FE0190000000000000000C3
:1011A000000000000000000000000000000000003F
:1011B0000C18180C180C180C30063006300660039A
:1011C00060036003C001C0010000000000000000D7
:1011D000000000000000000000000000000000000F
:1011E000C141C141C36163636363636336363636AD
:1011F00036361C1C1C1C1C1C0000000000000000DB
:1012000000000000000000000000000000000000DE
:101210001C38381C300C60066003600360036003F8
:101220006006300C381C1C38000000000000000074
:1012300000000000000000000000000000000000AE
:101240001830301830187018600C600CE00CC006B4
:10125000C00680038003800380018001C001F0008C
:10126000700000000000000000000000000000000E
:10127000FC1FFC1F000C000600038001C000600082
:1012800030001800FC1FFC1F0000000000000000E0
:1012900000000000000000038001C000C000C0008A
:1012A000C000C000C000600060003000600040006E
:1012B000C000C000C000C000C000C000800100032A
:1012C0000000000000008001800180018001800199
:1012D0008001800180018001800180018001800106
:1012E00080018001800180018001800180018001F6
:1012F0008001000000006000C000C001800180018A
:10130000800180018001000300030006000300014A
:10131000800180018001800180018001C0006000A7
:1013200000000000000000000000000000000000BD
:1013300000000000F010F81F080F0000000000007F
:10134000000000000000000000000000000000009D
:10135000000000000000000000000000000000008D
:10136000000000000000000000000000000000205D
:10137000002000200020002000200020000000208D
:10138000000000000000005000500050000000006D
:101390000000000000000000000000000000000944
:1013A00000090012007F0012007F001200240024B8
:1013B00000000000001000380054005000500038B9
:1013C0000014005400540038001000000000803069
:1013D00000490049004AC032200520092009C010F8
:1013E000000000000000000C0012001200140018A1
:1013F000002500230023801D0000000000000040A5
:10140000004000400000000000000000000000005C
:101410000000000000000008001000100020002064
:1014200000200020002000200010001000000040DC
:10143000002000200010001000100010001000100C
:10144000002000200000002000700020005000005C
:10145000000000000000000000000000000000008C
:10146000000000080008007F0008000800000000DD
:10147000000000000000000000000000000000006C
:1014800000000000000000200020004000000000DC
:1014900000000000000000000070000000000000DC
:1014A000000000000000000000000000000000003C
:1014B00000000000000000200000000000000010FC
:1014C00000100010002000200020002000400040FC
:1014D0000000000000000010002800440044004408
:1014E000004400440028001000000000000000102C
:1014F000003000500010001000100010001000100C
:101500000000000000000030004800440004000813
:10151000001000200040007C0000000000000030AF
:101520000048000400080010000800440048003093
:101530000000000000000008001800180028002823
:101540000048007C00080008000000000000003C8B
:1015500000200040007000480004004400480030B3
:101560000000000000000018002400400050006847
:101570000044004400280010000000000000007C2F
:1015800000040008001000100010002000200020BF
:101590000000000000000010002800440028001097
:1015A0000028004400280010000000000000001087
:1015B000002800440044002C0014000400480030BF
:1015C00000000000000000000000002000000000FB
:1015D00000000000000000200000000000000000EB
:1015E00000000020000000000000000000000020BB
:1015F000002000400000000000040008003000400F
:10160000003000080004000000000000000000009E
:101610000000007C00000000007C000000000000D2
:10162000000000000000000000400020001800043E
:1016300000180020004000000000000000000038FA
:1016400000640044000400080010001000000010B6
:10165000000000000000800F4010A02EA05120517B
:10166000205120512053C04D202040100000000880
:101670000014001400140022003E0022004100412A
:10168000000000000000003C002200220022003C7C
:10169000002200220022003C000000000000000E9A
:1016A0000011002100200020002000210011000E68
:1016B000000000000000003C002200210021002169
:1016C000002100210022003C000000000000003E3C
:1016D000002000200020003E002000200020003ECE
:1016E000000000000000003E002000200020003C20
:1016F0000020002000200020000000000000000E5C
:101700000011002100200027002100210011000EFF
:101710000000000000000021002100210021003F06
:101720000021002100210021000000000000002015
:1017300000200020002000200020002000200020A9
:101740000000000000000008000800080008000871
:10175000000800480048003000000000000000229F
:10176000002400280028003800280024002400223B
:1017700000000000000000200020002000200020C9
:10178000002000200020003E00000000000080201B
:10179000803180318031802A802A802A802A8024EA
:1017A0000000000000000021003100310029002964
:1017B0000025002300230021000000000000000C91
:1017C0000012002100210021002100210012000C44
:1017D000000000000000003C002200220022003C2B
:1017E0000020002000200020000000000000000C6D
:1017F0000012002100210021002100210016000D0F
:10180000000100000000003E002100210021003EF8
:101810000024002200218020000000000000001CA5
:10182000002200220020001C000200220022001CD6
:10183000000000000000003E00080008000800084A
:101840000008000800080008000000000000002157
:101850000021002100210021002100210012000CA4
:101860000000000000000041004100220022002290
:1018700000140014001400080000000000004044A0
:10188000404A402A802A802A802A802A802A001101
:1018900000000000000000410022001400140008B5
:1018A000001400140022004100000000000000416C
:1018B00000220022001400080008000800080008A8
:1018C000000000000000007E00020004000800107C
:1018D000001000200040007E0000000000000030EA
:1018E00000200020002000200020002000200020F8
:1018F00000200020000000400040002000200020C8
:101900000020002000100010000000000000006017
:1019100000200020002000200020002000200020C7
:1019200000200020000000100028002800280044AB
:1019300000000000000000000000000000000000A7
:101940000000000000000000000000000000000097
:101950000000007E004000200000000000000000A9
:101960000000000000000000000000000000000077
:101970000000003800440004003C00440044003CE7
:1019800000000000000000400040005800640044D7
:101990000044004400640058000000000000000003
:1019A0000000003000480040004000400048003087
:1019B000000000000000000400040034004C00445B
:1019C00000440044004C003400000000000000000F
:1019D0000000003800440044007C0040004400380F
:1019E0000000000000000060004000E000400040F7
:1019F00000400040004000400000000000000000E7
:101A000000000034004C004400440044004C00340A
:101A100000040044000000400040005800640044FE
:101A20000044004400440044000000000000004066
:101A300000000040004000400040004000400040E6
:101A40000000000000000040000000400040004096
:101A500000400040004000400040004000000040C6
:101A6000004000480050006000500050004800480E
:101A70000000000000000040004000400040004026
:101A80000040004000400040000000000000000056
:101A900000000052006D004900490049004900491A
:101AA0000000000000000000000000580064004436
:101AB0000044004400440044000000000000000016
:101AC0000000003800440044004400440044003852
:101AD0000000000000000000000000580064004406
:101AE0000044004400640058004000400000000032
:101AF00000000034004C004400440044004C00341A
:101B000000040004000000000000005000600040DD
:101B100000400040004000400000000000000000C5
:101B2000000000300048004000300008004800304D
:101B30000000000000000040004000E000400040C5
:101B40000040004000400060000000000000000075
:101B5000000000440044004400440044004C0034B1
:101B600000000000000000000000004400440028C5
:101B700000280028002800100000000000000000DD
:101B8000000000490049005500550055005500224D
:101B900000000000000000000000004400280028B1
:101BA0000010002800280044000000000000000091
:101BB0000000004400440028002800280010001005
:101BC0000010001000000000000000780008001065
:101BD00000200020004000780000000000000010FD
:101BE00000200020002000200040002000200020D5
:101BF0000020002000000020002000200020002005
:101C000000200020002000200020002000000040D4
:101C100000200020002000200010002000200020D4
:101C200000200020000000000000000000740058A8
:101C300000000000000000000000000000000000A4
:101C400000700050005000500050005000500070D4
:101C50000000000000000000000000000000000084
:101C60000000000000000000000000000000000074
:101C70000000100010001000100010001000000004
:101C800010000000000000000000280028002800CC
:101C90000000000000000000000000000000000044
:101CA0000000140014003E00140028007C002800EE
:101CB0002800000000000000100038005400500010
:101CC0003800140014005400380010000000000018
:101CD00000004400A800A800500014001A002A00C8
:101CE0002400000000000000000020005000500010
:101CF0002000E8009800980060000000000000004C
:101D00000000800080008000000000000000000053
:101D10000000000000000000000040008000800083
:101D200080008000800080008000800000000000B3
:101D300000008000400040004000400040004000A3
:101D4000400040000000000000004000E0004000B3
:101D5000A0000000000000000000000000000000E3
:101D600000000000000020002000F80020002000FB
:101D70000000000000000000000000000000000063
:101D800000000000000000004000400000000000D3
:101D9000000000000000000000000000C000000083
:101DA0000000000000000000000000000000000033
:101DB00000000000000000004000000000000000E3
:101DC0000000200020002000400040008000800033
:101DD0008000000000000000000060009000900003
:101DE0009000900090009000600000000000000053
:101DF000000020006000A000200020002000200043
:101E000020000000000000000000600090001000B2
:101E10001000200040008000F000000000000000E2
:101E200000006000900010006000100010009000A2
:101E300060000000000000000000100030005000B2
:101E400050009000F800100010000000000000009A
:101E50000000700040008000E000100010009000C2
:101E600060000000000000000000600090008000A2
:101E7000A000D00090009000600000000000000072
:101E80000000F00010002000200020004000400072
:101E90004000000000000000000060009000900082
:101EA00060009000900090006000000000000000C2
:101EB0000000600090009000B00050001000900002
:101EC0006000000000000000000000000000400072
:101ED00000000000000000004000000000000000C2
:101EE00000000000000040000000000000000000B2
:101EF0004000400000000000000000000000100052
:101F00006000800060001000000000000000000081
:101F10000000000000000000F0000000F0000000E1
:101F20000000000000000000000000000000800031
:101F30006000100060008000000000000000000051
:101F400000006000900010002000400040000000F1
:101F5000400000000000000000001C0022005B00A8
:101F6000A500A500A500A5009E00410000000000FE
:101F70000000200050005000500050007000880009
:101F800088000000000000000000F00088008800C9
:101F9000F000880088008800F000000000000000C9
:101FA0000000380044008400800080008400440069
:101FB00038000000000000000000E00090008800F1
:101FC0008800880088009000E00000000000000009
:101FD0000000F80080008000F80080008000800091
:101FE000F800000000000000000078004000400001
:101FF0007000400040004000400000000000000071
:10200000000038004400840080009C0084004400EC
:1020100038000000000000000000880088008800F0
:10202000F800880088008800880000000000000098
:102030000000800080008000800080008000800020
:1020400080000000000000000000100010001000E0
:1020500010001000900090006000000000000000E0
:10206000000088009000A000E000A0009000900018
:102070008800000000000000000080008000800058
:102080008000800080008000F00000000000000060
:1020900000008200C600C600AA00AA00AA00AA008A
:1020A000920000000000000000008400C400A400B2
:1020B000A400940094008C00840000000000000044
:1020C0000000300048008400840084008400480040
:1020D00030000000000000000000F00088008800D0
:1020E0008800F000800080008000000000000000F8
:1020F0000000300048008400840084008400580000
:102100003400040000000000000078004400440097
:102110007800500048004400420000000000000029
:1021200000007000880080007000080088008800AF
:1021300070000000000000000000F80020002000F7
:1021400020002000200020002000000000000000EF
:10215000000084008400840084008400840048001F
:1021600030000000000000000000880088005000DF
:1021700050005000500050002000000000000000FF
:1021800000009200AA00AA00AA00AA00AA00AA00C1
:1021900044000000000000000000840048004800E7
:1021A00030003000480048008400000000000000BB
:1021B0000000880050005000200020002000200077
:1021C00020000000000000000000F80008001000DF
:1021D0002000200040008000F80000000000000007
:1021E0000000C0008000800080008000800080002F
:1021F000800080000000000000008000800040009F
:1022000040004000400020002000000000000000CE
:102210000000C0004000400040004000400040007E
:10222000400040000000000000004000A000A000AE
:10223000A0000000000000000000000000000000FE
:10224000000000000000000000000000000000008E
:102250000000F800000000000000800040000000C6
:10226000000000000000000000000000000000006E
:10227000000000000000E0001000700090009000DE
:102280007000000000000000000080008000A0003E
:10229000D00090009000D000A000000000000000DE
:1022A00000000000000060009000800080009000AE
:1022B000600000000000000000001000100050004E
:1022C000B00090009000B00050000000000000003E
:1022D00000000000000060009000F000800090000E
:1022E00060000000000000000000C0008000C0008E
:1022F000800080008000800080000000000000005E
:102300000000000000005000B00090009000B000FD
:102310005000100000000000000080008000A000BD
:10232000D00090009000900090000000000000009D
:10233000000080000000800080008000800080009D
:10234000800000000000000000008000000080000D
:10235000800080008000800080008000000000007D
:102360000000800080009000A000C000A00090004D
:10237000900000000000000000008000800080004D
:1023800080008000800080008000000000000000CD
:10239000000000000000A600DA0092009200920007
:1023A0009200000000000000000000000000A000FB
:1023B000D00090009000900090000000000000000D
:1023C000000000000000600090009000900090006D
:1023D0006000000000000000000000000000A000FD
:1023E000D00090009000D000A0008000000000000D
:1023F0000000000000005000B00090009000B0000D
:102400005000100000000000000000000000A000CC
:10241000C0008000800080008000000000000000FC
:10242000000000000000E00090004000200090004C
:102430006000000000000000000080008000C0007C
:102440008000800080008000C000000000000000CC
:102450000000000000009000900090009000B0008C
:102460005000000000000000000000000000880094
:1024700088005000500050002000000000000000C4
:102480000000000000009200AA00AA00AA00AA0012
:102490004400000000000000000000000000880070
:1024A00050002000200050008800000000000000C4
:1024B0000000000000008800500050005000200084
:1024C0002000200000000000000000000000F000DC
:1024D0001000200040008000F0000000000000001C
:1024E0000000C000800080008000000080008000AC
:1024F000800080000000000000008000800080005C
:1025000080008000800080008000800000000000CB
:102510000000C0004000400040002000400040009B
:10252000400040000000000000000000000000002B
:10253000E800B00000000000000000000000000003
:1025400000000000E000A000A000A000A000A0008B
:10255000E000000070B586B0012140F2811000F06B
:102560000FFCDFF82C430D2200F094F8DFF8246311
:102570000D22082100F09BF80D22092100F097F8A8
:102580000D220A2100F093F80D220B2100F08FF8A4
:102590000D220C2100F08BF80D220E2100F087F89F
:1025A000DFF8F4520D22052100F07EF80D220621FD
:1025B00000F07AF80D22072100F076F80D220421B0
:1025C00000F072F84FF4BE40009002208DF8040035
:1025D00003208DF8050000208DF8060001208DF8FD
:1025E000070000A9304600F015FCF020009000A97B
:1025F000284600F00FFC402000F050F88DF806004F
:1026000000A9204600F006FC01214FF4001000F064
:10261000D2FB0121022000F0B3FBDFF8804204224C
:10262000092100F038F8042200F034F84FF410705B
:1026300000F034F88DF8050001208DF80600002028
:102640008DF8070000A9204600F0E4FBDFF85042B7
:10265000204600F029FC0121204600F0B1FC0020BA
:10266000ADF80C004BF6FF70ADF80E00FE20ADF893
:1026700010004FF48060ADF812004FF48040ADF8C8
:10268000140047F23050029002A9204600F035FCB9
:1026900006B070BD0621204600F0F4BB0090022079
:1026A0008DF8040000207047284600F0EBBB304650
:1026B00000F0E8BB80B500F005F880211220BDE8ED
:1026C000044098E00121FF2095E030B593B0044626
:1026D0000121012000F05DFB002000902020ADF8DA
:1026E00004000020ADF806000290ADF80C000121B6
:1026F0004FF4800000F044FBDFF8A851284600F0BA
:10270000D1FC4FF000700490DFF89C010590DFF8D9
:102710009C0106900020079001200890002009905D
:102720000A904FF480500B904FF400500C904FF4EF
:1027300080700D904FF400300E9004200F90032015
:102740001090002011901290012C1CBF8020ADF839
:10275000060000A800F088FD04A9284600F002FD4C
:1027600013B030BD38B5FFF7A5FFC82000F00AFE52
:1027700000240FF2481500F01BF8022000F002FEC2
:10278000641C4FF4A4708442F5D331BD38B5FFF713
:1027900091FFC82000F0F6FD00240FF2B03500F0E4
:1027A00007F8022000F0EEFD641CDC2CF7D331BDED
:1027B00005EB4400417815F814001CE010B500F05A
:1027C00010F800F012F8042100F013F8092100F0CD
:1027D0000DF800F00DF80021FFE77D20BDE8104066
:1027E00009E004460021FF2005E000217C2002E0F2
:1027F00021467D20FFE72DE9F04106460C4642F2D6
:1028000010752F46DFF898800121404600F0E2FB6A
:10281000274900F039F820B93846471E0028F7D17B
:1028200028E000226021404600F0EAFB2F462149C3
:1028300000F02AF820B93846471E0028F7D119E0E1
:10284000F1B2404600F0EEFB2F461B4E00F01BF8A5
:1028500020B93846471E0028F8D10BE021464046F3
:1028600000F0E0FB2F4600F00EF828B93846471E6E
:102870000028F8D1FF2004E00121404600F0B5FB1C
:102880000020BDE8F0813146404600F0E4BB000086
:1028900000000240001C02400020024000040240F0
:1028A00000540040286402402800055002000068DF
:1028B000010003008200070084000700FF002CFFD6
:1028C0002EDFFF013C321100090203CF040813E59B
:1028D00014482C0C33783A333BFB3E00431116105E
:1028E00039023588220A3740230034A0361A0602FE
:1028F00007C00DB70E014C004A812199243A2532B8
:1029000026825C0063005D555E7D5F7D6055617071
:1029100062807C05208028306C006D806E00700223
:10292000719673E13D345A574FBB509C0F43FF00E3
:10293000E57FF9C04124E01476FF33A0422043181C
:102940004C0087D0883FD703D910D382C808C980EC
:102950007C007D027C037D487D487C087D207D10C5
:102960007D0E9000910E911A9131915A9169917555
:10297000917E9188918F919691A391AF91C491D7B7
:1029800091E891209200930693E3930593059300B9
:10299000930093009300930093009300930093009F
:1029A0009600970897199702970C972497309728C5
:1029B000972697029798978097009700C3EDA400F9
:1029C000A800BF00BAF0BC64BB02B63DB857B73828
:1029D000B94EB3E8B4E1B566B067B15EB204C70002
:1029E000C651C511C49CCF02A600A7E0A710A71E20
:1029F000A721A700A728A7D0A710A716A721A7003F
:102A0000A728A7D0A710A717A721A700A728C0C845
:102A1000C196861D5000519052185300540055889D
:102A200057005A905B185C05C3EF7F00DA00E51F82
:102A3000E167E000DDFF0500FF01FF011200171153
:102A4000187519011A9732364FBB6D803D34390223
:102A50003588220A3740230034A0361A060207C000
:102A60000DB70E014C00FF00E0048C0087D0E000A1
:102A7000FF00E014E177E51FD703DA10E000FF0064
:102A8000E004C0C8C196861D50005190522C5300DE
:102A90005400558857005A905B2C5C05E000D30425
:102AA000FF00C3EFA600A7DDA778A77EA724A70095
:102AB000A725A606A720A758A773A734A700A72570
:102AC000A60CA728A758A76DA734A700A725FF0025
:102AD000E004E167E51FD701DA08DA09E0009800B1
:102AE0009900FF010428FF01124017111843190033
:102AF0001A4B32094FCA50A85A236D00391235DAE1
:102B0000221A37C3230034C0361A068807C00D873F
:102B10000E414C00FF00E004C064C14B863550926A
:102B200051C8529653005400550057005A285B1E56
:102B30005C00E000FF0111003D382D005065FF00F2
:102B4000D3047C007D047C097D287D00FF002CFFE0
:102B50002EDFFF013C3211000902042813E514485E
:102B60002C0C33783A333BFB3E00431116104A815C
:102B700021992440253826825C006300463F0C3CA6
:102B8000617062807C05208028306C006D806E0052
:102B90007002719473C13D345A571200110017111D
:102BA000187519011A973236030F37404FBB509CE6
:102BB0005A576D806D3839023588220A3740230014
:102BC00034A0361A060207C00DB70E014C00FF00F4
:102BD000E57FF9C04124E01476FF33A0422043187A
:102BE0004C0087D0883FD703D910D382C808C9804A
:102BF0007D007C037D487C087D207D107D0E90004B
:102C0000910E911A9131915A91699175917E9188A5
:102C1000918F919691A391AF91C491D791E8912012
:102C20009200930693E3930293029300930493001C
:102C300093039300930093009300930093009300F9
:102C40009600970897199702970C97249730972822
:102C5000972697029798978097009700C3EFFF00F9
:102C6000BADCBB08B624B833B720B930B3B4B4CAA1
:102C7000B543B05CB14FB206C700C651C511C49C84
:102C8000BF00BC64A600A71EA76BA747A733A70079
:102C9000A723A72EA785A742A733A700A723A71B73
:102CA000A774A742A733A700A723C0C8C1968C006A
:102CB000863D50925190522C5300540055885A50E2
:102CC0005B3C5C00D3047F00DA00E51FE167E000B5
:102CD000DD7F0500FF00E004C0C8C196863D50922C
:102CE0005190522C53005400558857005A505B3C69
:102CF0005C00D304E000FF000500DA08DA09980060
:102D00009900000030B539494A68394B394C02F016
:102D10000C02042A02D0082A02D016E0234614E04E
:102D20000A680D6805F03F0552024CBFB4FBF5F28E
:102D3000B3FBF5F20B68C3F388135A430B68C3F374
:102D400001435B1C5B00B2FBF3F303604B682A4A50
:102D50000468C3F303139B5C24FA03F343604B68DA
:102D60004468C3F382239B5C24FA03F383604968BD
:102D70004368C1F34231895C23FA01F1C16030BD7F
:102D80001E4A0029116814BF084321EA00001060A0
:102D900070471B4A0029116814BF084321EA00004C
:102DA00010607047174A0029116814BF084321EAD0
:102DB000000010607047144A0029116814BF0843CE
:102DC00021EA000010607047104A0029116814BF02
:102DD000084321EA0000106070470D4A002911687D
:102DE00014BF084321EA0000106070470438024015
:102DF0000024F40040787D01980200203038024021
:102E000034380240383802404038024044380240EA
:102E100020380240F0B50022012393400C681C408A
:102E20009C422BD154000325A540ED4306682E405B
:102E3000066006680F79A7403E4306600E79012EB2
:102E400018BF022E11D186682E40866086684F79A1
:102E5000A7403E438660466826EA03034360436812
:102E60008E799640B6B233434360C3682B40C3604B
:102E7000C368CD7905FA04F42343C360521C102AB9
:102E8000CAD3F0BD10B5CB1000EB830001F00701F1
:102E90008900036A0F248C40A3430362036A02FA89
:102EA00001F11943016210BD80B54049884208D143
:102EB00001214FF40010FFF790FF00214FF40010A4
:102EC00016E03B49884208D101214FF48000FFF70A
:102ED00084FF00214FF480000AE0364988420BD17C
:102EE00001214FF40000FFF778FF00214FF40000AC
:102EF000BDE80440FFF771BF01BD7FB504460D4634
:102F0000A68800A8FFF7FEFE02992B48B1FBF0F05F
:102F10004FF6C07232400243A28022884FF6FE7301
:102F20001A4022802A68254B9A4208D25200B1FBEF
:102F3000F2F18AB2042A38BF042189B220E0EB887A
:102F40004BF6FF76B34204BF02EB4202B1FBF2F153
:102F500006D019235A43B1FBF2F141F4804189B202
:102F60000A0504BF41F0010189B241F4004189B270
:102F700080B24FF4967250434FF47A7290FBF2F0A5
:102F8000401C2084A183208840F0010020802088FC
:102F90004FF6F5310840A988084369890843208025
:102FA000A8892989084320817FBD00000054004082
:102FB00000580040005C004040420F00A186010024
:102FC0000029018812BF41F001014FF6FE72114045
:102FD000018070470029018819BF4FF480721143A6
:102FE0004FF6FF621140018070470029018819BF28
:102FF0004FF4007211434FF6FF52114001807047A9
:10300000002A14BF41F0010101F0FE010182704766
:103010000029018812BF41F480614FF6FF32114050
:103020000180704701827047008AC0B27047002952
:10303000818812BF41F400614FF2FF72114081801C
:1030400070470029818812BF41F480514EF6FF720B
:103050001140818070470022838A008B43EA004040
:1030600008400002000A884208BF0122104670474B
:1030700082B0024600200190009000920A0F019257
:103080000902090A019A12B1009A143202E0090CED
:10309000009A18320092009A12680A4218BF012062
:1030A00002B07047F0B5016849084900016000218D
:1030B000016041608160C16001612121416151492C
:1030C000514A904226D04FF47462504B984228D017
:1030D0004FF474134E4CA04228D04FF074644D4D01
:1030E000A84228D04C4D4D4EB04229D04C4E4D4FA9
:1030F000B8422AD04C4FDFF834C160452AD04FF097
:103100003D5CDFF82CE1704529D04A49DFF828E121
:10311000704502D13D200860F0BDDFF820E1704528
:1031200001D10A60F0BD464A904201D10B60F0BD6A
:10313000444A904201D10C60F0BD434A904201D113
:103140004D60F0BD414A904201D14E60F0BD404A11
:10315000904201D14F60F0BD3E4A904201D1C1F88A
:1031600004C0F0BD10B502683B4B1A400B681A430F
:10317000CB681A434B691A438B691A43CB691A43CC
:103180000B6A1A434B6A1A438B6A1A434B6B1A43F6
:103190008B6B1A4302604269D2080B6BCC6A2343E3
:1031A00053EAC20242610A6942604A6882608968E1
:1031B000C16010BD0029016812BF41F0010149083A
:1031C00049000160704700221B4B984234BF2348DE
:1031D00023488B004CBF40680068084021490842E2
:1031E00018BF012210467047134A904234BF1B4853
:1031F0001B481C4A0A40890001D5C26070478260A2
:1032000070470000086002401060024028600240E1
:1032100040600240586002403D0000207060024063
:10322000400F00208860024000003D20A060024066
:10323000B860024008640240106402402864024002
:103240004064024058640240706402408864024056
:10325000A0640240B86402403F801CF0006002405D
:10326000006402407D0F7D0F1C490A681C4B1A4008
:103270000A600A681B4B1A4003881A4343881A43A2
:1032800083881A43C3881A4303891A4343891A431C
:10329000808910430860704710490028086814BFEF
:1032A00040F4804020F48040086070470B490028BB
:1032B000086812BF40F001004008400008607047F5
:1032C000094A0029116812BF0843C0430840106032
:1032D000704700BF054908607047000000000550B6
:1032E000FEBFFFFF0DF0FFFF0C000550140005505E
:1032F00080B52B484178007850B901292BD100F0D6
:1033000053F8012000F013F9BDE8014000F09EB928
:10331000012813D1012908D1FFF71CF90120FFF77B
:10332000D4F9BDE80140FFF731BAFFF713F90020E7
:10333000FFF7CBF9BDE80140FFF714BA032813D11A
:10334000012908D100F030F8012000F0F0F8BDE8C4
:10335000014000F0D9BB00F027F8002000F0E7F8AA
:10336000BDE8014000F06AB901BD10B5052400F0C8
:10337000A7FEC088604380B200F0A6FE641C132C38
:10338000F5D310BD0749086008680028FCD17047D4
:103390000448016811B10168491E016070470000CE
:1033A000D8070020D007002070B586B0012140F278
:1033B0008110FFF7E5FCDFF8B0440D2200F094F82F
:1033C000DFF8A8640D22082100F09BF80D220921E6
:1033D00000F097F80D220A2100F093F80D220B213E
:1033E00000F08FF80D220C2100F08BF80D220E2139
:1033F00000F087F8DFF878540D22052100F07EF800
:103400000D22062100F07AF80D22072100F076F84F
:103410000D22042100F072F84FF4BE40009002200B
:103420008DF8040003208DF8050000208DF80600BB
:1034300001208DF8070000A93046FFF7EBFCF020D3
:10344000009000A92846FFF7E5FC402000F050F866
:103450008DF8060000A92046FFF7DCFC01214FF49F
:103460000010FFF7A8FC01210220FFF789FCDFF81C
:1034700004440422092100F038F8042200F034F852
:103480004FF4107000F034F88DF8050001208DF82D
:10349000060000208DF8070000A92046FFF7BAFCBF
:1034A000DFF8D4432046FFF7FFFC01212046FFF759
:1034B00087FD0020ADF80C004BF6FF70ADF80E0054
:1034C000FE20ADF810004FF48060ADF812004FF40C
:1034D0008040ADF8140047F23050029002A9204617
:1034E000FFF70BFD06B070BD06212046FFF7CABCF2
:1034F000009002208DF80400002070472846FFF756
:10350000C1BC3046FFF7BEBC10B504461C2000F01D
:103510003EF920701D2000F03AF960700B2000F099
:1035200036F9A0700A2000F032F9E07010BD10B535
:1035300094B001210120FFF72CFC0020009000F046
:103540006BF8CE4C2046FFF7ADFD00F040F8CC48BC
:1035500000F043F800F049F804A92046FFF702FE06
:1035600014B010BD30B593B0044601210120FFF71F
:1035700010FC0220ADF800000020ADF8020000F0C1
:103580004BF8BE4D2846FFF78DFD00F020F84FF0B8
:10359000C84000F022F84FF4806000F026F804A93B
:1035A0002846FFF7DFFD44B1012C09D0062C0AD0D4
:1035B000072C08BF00F07DF807E000F03FF804E0BA
:1035C00000F044F801E000F056F813B030BD4FF0C1
:1035D00000700490AB48059070470690002007905B
:1035E000012008900020099070470A904FF4805005
:1035F0000B904FF400500C904FF480700D904FF4EE
:1036000000300E9004200F900320109000201190A5
:10361000129000A8FFF728BEADF804008020ADF896
:1036200006004020ADF808000020ADF80A00ADF813
:103630000C0001214FF48000FFF7A2BB38B500F069
:1036400035F800F030F800248F4D06E038B500F072
:103650002DF800F028F800248C4D05EB440041784B
:1036600015F8140000F047F80220FFF78BFE641CE9
:10367000972CF2D331BD10B5CEB000A80FF22C219B
:103680004FF49A7200F0C6FE00F010F800F00BF84C
:10369000002400F026F80220FFF774FE641C992C29
:1036A000F7D34EB010BDC820FFF76CBE80211220AA
:1036B00021E010B5CAB000A80FF224314FF4947283
:1036C00000F0A8FEFFF7F2FFFFF7EDFF002400F087
:1036D00008F80220FFF756FE641C932CF7D34AB07B
:1036E00010BD00A800EB4400417800A810F81400B9
:1036F00001E0014655202DE9F04106460C4642F214
:1037000010752F46DFF8708101214046FFF762FCFB
:103710005F4900F039F820B93846471E0028F7D134
:1037200028E0002260214046FFF76AFC2F465949F5
:1037300000F02AF820B93846471E0028F7D119E0D2
:10374000F1B24046FFF76EFC2F46534E00F01BF8D7
:1037500020B93846471E0028F8D10BE021464046E4
:10376000FFF760FC2F4600F00EF828B93846471ED8
:103770000028F8D1FF2004E001214046FFF735FC86
:103780000020BDE8F08131464046FFF764BC2DE9DA
:10379000F041064642F210742746374D0121284673
:1037A000FFF718FCDFF8E88000F07CF820B9384615
:1037B000471E0028F8D149E0002261212846FFF782
:1037C0001FFC2746334900F06EF820B93846471EE3
:1037D0000028F7D13AE0F1B22846FFF723FC27464C
:1037E0002D4900F060F820B93846471E0028F7D16F
:1037F0002CE0A88A40F48060A88201212846FFF7C7
:10380000E9FB274600F04EF820B93846471E00284D
:10381000F8D11BE0012261212846FFF7F1FB274682
:103820001E4900F040F820B93846471E0028F7D15D
:103830000CE000212846FFF7EBFB2746184900F073
:1038400032F828B93846471E0028F7D1FF2008E093
:1038500001212846FFF7C9FB2846BDE8F041FFF7E4
:10386000E3BBBDE8F081000000000240001C024004
:10387000002002400004024000540040286402403E
:1038800002000068280005500000002030010020E0
:10389000010003008200070084000700020003000B
:1038A0004000030041462846FFF7D5BB1280B50013
:1038B0003500A8C13A803D99770213E726722708A0
:1038C000280829152C08AB046E006D550032107BBA
:1038D000BBAE110172003E0C743A7601753573006F
:1038E000C780C34E3300A450AA92C201C1C81E04AF
:1038F000A9FA0E6139570F42243C25361262031291
:1039000032FF1716180219011A3D36FA690A8C8D12
:10391000C0AA40C0C685CBF0CCD87178A5686F9E90
:1039200042C03F828A23143A3BCC343D4140C9E037
:10393000CAE8CD937A207B1C7C287D3C7E5A7F6828
:10394000807681808288838F849685A386AF87C4A2
:1039500088D789E84F98509851005228537054984E
:10396000581A6B5A908691849F75A07316242A006A
:103970002B00AC80AD80AE80AF80B2F2B320B4201B
:10398000B6AFB6AF0403052B06350736083B2DF45A
:103990002E012F354AEA4BE64CE64DE64EE6700B1B
:1039A000A640BC04BD01BE03BF01BF01431444F0E7
:1039B00045464662472A483C59855AA95B645C845F
:1039C0005D535E0E6C0C6D556E006F9E6200630061
:1039D0006402652066019D029E022915A9EF000080
:1039E0001280000001800280031B04430B570E610C
:1039F0000F441108120213C7143A1624171D18BDDC
:103A000019011A811E04243C25362672270828082D
:103A100029152A002B002C0832FF3300343D3500D5
:103A200036F8387239573A8C3B043D993E0C3FC109
:103A300040C0410042C0430A44F045464662472A1E
:103A4000483C4AFC4BFC4C7F4D7F4E7F4F98509832
:103A50005100522853705498581A581A59855AA927
:103A60005B645C845D535E0E5FF060F061F0620049
:103A70006300640265206600690A6B5A6C046D5528
:103A80006E006F9D7021717872007300743A753505
:103A9000760177027A127B087C167D307E5E7F721B
:103AA0008082818E829A83A484AC85B886C387D6AF
:103AB00088E689F28A248C8D907D917B9D029E02FE
:103AC0009F7AA079A140A450A568A64AA8C1A9EFF1
:103AD000AA92AB04AC80AD80AE80AF80B2F2B320CE
:103AE000B420B500B6AFBBAEBC7FBD7FBE7FBF7F8D
:103AF000C0AAC1C0C201C34EC605C780C9E0CAE89A
:103B0000CBF0CCD8CD93000038B58021122000F046
:103B10001CF868B9C820FFF735FC00240FF2D40563
:103B200005EB4400417815F8140000F00EF808B1D8
:103B3000FF2032BD0220FFF725FC641CA82CEFDB20
:103B40006420FFF71FFC002032BD2DE9F04106463E
:103B50000C4642F210752F46DFF88880012140465E
:103B6000FFF738FA204900F039F820B93846471EE7
:103B70000028F7D128E0002242214046FFF740FA12
:103B80002F461A4900F02AF820B93846471E002867
:103B9000F7D119E0F1B24046FFF744FA2F46144E30
:103BA00000F01BF820B93846471E0028F8D10BE07A
:103BB00021464046FFF736FA2F4600F00EF828B9A6
:103BC0003846471E0028F8D1FF2004E00121404676
:103BD000FFF70BFA0020BDE8F08131464046FFF7C1
:103BE0003ABA0000005400400100030082000700C0
:103BF000840007003A083D8240D012143280171624
:103C0000180419021A7B03060C003E0070007101B3
:103C100072117300A20211017A207B1C7C287D3C6A
:103C20007E557F68807681808288838F849685A385
:103C300086AF87C488D789E813E0000F10000D0015
:103C40001438A505AB072475256326A59F78A068C1
:103C5000A103A6DFA7DFA8F0A990AA9413E50E613F
:103C60000F4B16021E27210222912907330B350B19
:103C7000371D3871392A3C784D404E20695D6B0004
:103C800074198D4F8E008F00900091009200960065
:103C90009A80B084B10CB20EB382B80A431444F0D7
:103CA000453446584728483A59885A885B445C67E7
:103CB0005D495E0E640465206605940495086C0AEF
:103CC0006D556E116F9F6A400140024013E7151851
:103CD0004F80508051005222535E548055005652FE
:103CE000589E41083F05750576E14C0F770A4B0950
:103CF000C9604138564034113B02A4899600973080
:103D0000982099309A849B299C039D4C9E3F78046F
:103D10007901C8F0790FC8007910C87E790AC88087
:103D2000790BC801790CC80F790DC8207909C880B2
:103D30007902C8C07903C8407905C83079260902DC
:103D40003B4200002DE9F84F0020009000F087FA78
:103D500000F004FB00F081FA4FF0D04400202080F6
:103D60006088009041F2180540F23F164FF4E85B7E
:103D700040F2391840F2371941F2B07A40F202208D
:103D80004FF4E0674FF48071009A49F220339A4271
:103D900040F09A80E52222804FF40042628000F0D9
:103DA00041F941F23001618000F048F900F031F949
:103DB00000F053FA12202080A4F8028000F04DFA9F
:103DC00000F043FA20202080002060802120208005
:103DD00000206080302020800720608031202080FB
:103DE00007206080322020800720608035202080DE
:103DF00007206080362020800720608037202080C8
:103E000067803820208067803920208067803C20B0
:103E1000208067803D2020804FF4F8506080502043
:103E200020800020608051202080EF206080522080
:103E300020800020608053202080668060202080C9
:103E40004FF41C50608061202080012060806A2037
:103E500020800020608080202080002060808120E1
:103E600020800020608082202080002060808320CD
:103E700020800020608084202080002060808520B9
:103E80002080002060809020208010206080922080
:103E90002080002060809320208003206080952077
:103EA00020804FF488706080972020800020608000
:103EB00098202080002060800320208065800720DB
:103EC000208040F273109CE0009A49F225339A4218
:103ED00040F0988000F0A6F8658000F0AFF800F0A0
:103EE00098F800F0BAF912202080A4F8028000F0BF
:103EF000B4F900F0AAF92020208000206080212061
:103F000020800020608030202080072060803120C9
:103F1000208040F2023060803220208040F2051084
:103F200060803521218040F2062161803622228086
:103F300040F6080262803723238061803821218087
:103F400040F20451618039212180072161803C21A8
:103F5000218060803D2020806280502020800020D1
:103F6000608051202080EF2060805220208000203F
:103F70006080532020806680602020804FF427409E
:103F8000608061202080012060806A2020800020E5
:103F900060808020208000206080812020800020A0
:103FA000608082202080002060808320208000208C
:103FB0006080842020800020608085202080002078
:103FC000608090202080102060809220208000203F
:103FD00060809320208003206080952020804FF413
:103FE000887060809720208000206080982020804A
:103FF000002060800320208065800720208040F220
:1040000033106080DFF8D80300F108014160BDE89B
:10401000F18F10202080A4F802A011202080A4F8A5
:1040200002907047002222800122628022806180FB
:104030000221218067800321218070470421218093
:1040400000216180082121806080092020800020DB
:1040500060800A202080002060800C2020800020CA
:1040600060800D202080002060800F2020800020B4
:10407000608010202080002060801120208000209F
:10408000608012202080002060801320208000208B
:104090006080142000F093B901B4DFF84403BDF848
:1040A0000010018001B0704701B4DFF83403BDF89F
:1040B0000010418001B07047DFF82413486070475A
:1040C000DFF81C034068704770B5044640F23F15A6
:1040D000DFF80C6307E020222946204600F060F854
:1040E000706880882D1AADB2681C80B271688988AA
:1040F0008842F0DA70BD10B5044640F23F1100204E
:1041000000F00AF84FF0D040222101804FF49631A0
:104110004480491EFCD110BD4FF0D04220231380B3
:104120005080212089E02DE9F843884691460026F9
:104130000446FFF7F1FF4FF0D047DFF8A45205E047
:10414000641C4146A0B2FFF7E7FF761C6968C88887
:10415000864223D222203880002202E028887880FC
:10416000521C8B889A42EBD239F816C080204FF04F
:104170000C0E93FBFEFE4FEACE0E00FA0EF010413D
:104180001CEA000F01D10D2B06D3012090401CEA40
:10419000000FE3D10D2BE1D36888E0E7BDE8F183A0
:1041A00010B5DFF83C325B68203AD2B2DC8862435B
:1041B0001B6803EB4202BDE81040B4E7F8B50446C3
:1041C0000D4640F23F16DFF8187208E015F8012B93
:1041D00031462046FFF7E4FF78688088361A287851
:1041E00030B1B6B2701C80B2796889888842EDDA45
:1041F000F1BD38B54FF0D044904204D3502525800E
:10420000821A521C02E05022228000226280512237
:1042100022806080994204D352222280CA1A521C02
:1042200002E052222280002262805322228061809A
:10423000BDE8344070E74FF0D042108051807047A5
:104240004FF0D04022210180704713202080A4F835
:1042500002B029202080132060800520AFE01CB52B
:1042600001217820FEF78CFD4CF233700090022083
:104270008DF804008DF805000020ADF80600594CBB
:1042800000F068F800F044F80C22012100F042F838
:104290000C22042100F03EF80C22052100F03AF82F
:1042A00000F04AF800F043F800F04BF800F03AF85C
:1042B00000F033F800F04AF80C22072100F02AF849
:1042C00000F03AF800F033F800F03BF80C220B2134
:1042D00000F020F80C220C2100F01CF80C220D211B
:1042E00000F018F800F01EF800F017F80120009018
:1042F0003D4C00F02FF800F00BF84FF48060009078
:10430000024C00F027F800F01CF813BD0018024022
:104310000C2200212046FEF7B5BD0C220F212046BD
:10432000FEF7B0BD0C220E212046FEF7ABBD0C22DD
:1043300009212046FEF7A6BD0C2208212046FEF7E3
:10434000A1BD0C220A212046FEF79CBD4FF68070CD
:104350000090264C00A92046FEF75CBD00B597B042
:1043600001210120FEF71EFD032000900020019096
:1043700009200290002003900490059006900420EC
:10438000079000200890099010200A9000200B90C0
:104390000C900D900E900F904FF4805010900020D4
:1043A00011901290139000A81490159007A800F097
:1043B00073F80121042000F0CAF817B000BD01B461
:1043C00081B00020009001980949484301E000981D
:1043D000401E009000980028F9D102B070470000FC
:1043E00088020020000C024000140240001002402D
:1043F000A086010062B38B0708D0521E11F8013B62
:1044000000F8013B00F024808B07F6D1830740F0D1
:10441000208000BF103A07D330B4B1E83810103A0A
:10442000A0E83810F9D230BC530724BFB1E8081017
:10443000A0E8081044BF51F8043B40F8043BD20701
:1044400024BF31F8022B20F8022B44BF0B780370F5
:104450007047083A07D3B1E80810083A40F8043B1F
:1044600040F804CBF7D25307E4E710B450F8041B2C
:1044700081B102681218001D50F8043BDC0744BFEC
:10448000A9F10104E31852F8044B43F8044B091F47
:10449000F9D1EBE710BC704710B54FF020414268EE
:1044A00083681A43C3681A4303691A4343691A436A
:1044B00083691A43C3691A43036A1A43436A1A4356
:1044C000836A1A43C36A1A43036B1A43036841F8A9
:1044D00023208268082A06D1026851F8223043F06E
:1044E000400341F82230416B0A684B6842EA0312EC
:1044F0008B6842EA0322CB6842EA03420B6942EA34
:1045000003524B6942EA03628969114302689200CF
:10451000A2F1C04251600168384AC36AB3F5804FC6
:1045200010D1806B0368446843EA0413846843EA4B
:104530000423046943EA0453446943EA0463806939
:10454000184301E06FF0704042F8210010BD4FF0B9
:104550002042002952F8201012BF41F00101284BDF
:10456000194042F82010704730B541688268114305
:10457000C268114302691143426941EA42218269DA
:1045800041EA423141F00801C2691368546843EAC4
:104590000423946843EA0443D26843EA0262036A4C
:1045A0001C685D6844EA05249D6844EA0544DB68AC
:1045B00044EA0363134C0068102803D12160A26011
:1045C000E36030BD2162A262E36230BD0D4A49B1B1
:1045D000102804BF106840F0040008D0106A40F0B2
:1045E000040008E00849102803D110680840106052
:1045F0007047106A0840106270470000040100A074
:10460000FEFF0F00600000A0FBFF0F002DE9F04F40
:1046100095B0804615461E460FF21470D0E900236F
:10462000CDE91323039103AF0020B8610DAC6FF007
:10463000004900E055440020ADF8020013AB4FF0F4
:10464000FF3229460DF1020000F07EFB8246BAF1EE
:10465000010F08DA2878B0F1010A6AEB0A0A6FEA5A
:104660000A004FEAD07ABDF8020025280CBFAAF153
:1046700001035346012B07DB2A4602A9404600F0FE
:1046800040FB002800F1CB80BDF80200252804D1B2
:104690000020F8603861786105E00028CAD1B86967
:1046A000BFE040F0010015F8011F2029F9D02329AF
:1046B0000ED02B2904D02D2906D030290CD00FE0A4
:1046C00040F0020080B2EEE740F0040080B2EAE77A
:1046D00040F0080080B2E6E740F0100080B2E2E768
:1046E0002A290DD131680A1D326009683962002912
:1046F00004D54942396240F0040080B26D1C11E0DB
:104700000021396209E0396A494505D001EB81038E
:1047100002EB4301303939626D1C2A78A2F1300175
:104720000A29F0D329782E291CBF4FF0FF31F961F7
:104730001CD115F8011F2A2906D131680A1D3260E3
:104740000968F9616D1C11E00021F96109E0F9695E
:10475000494505D001EB810302EB43013039F96192
:104760006D1C2A78A2F130010A29F0D3B884297887
:104770000FF2C45000F0F8FA08B115F8010B8DF8EB
:1047800032009DF83200682804BF2878682803D1D9
:1047900062208DF832006D1C0DA8B8602A78252A99
:1047A00013D0582A47D0632A00F0B580642A18BF76
:1047B000692A79D06F2A3ED0702A33D0732A0AD062
:1047C000752A18BF782A36D0C6E0F868411CF9600F
:1047D00025210155CAE09DF832006C28306814D0BC
:1047E000011D316000687860FA69002A03D500F085
:1047F000D7FA3861BAE0002100F0F2FA00281ABFB7
:104800007968401AF8693861B0E0011D31600268CA
:1048100002A9404600F009F9002840F1A7804FF0B6
:10482000FF3003E23068011D3160006802900DA87E
:10483000786078216BE09DF832306C2B08BF3068CF
:1048400011D0712B08BF306802D06A2B30680AD1B2
:10485000C01D20F007003060014601F10800306003
:10486000D1E9000102E0011D316000680290682B6F
:1048700004BF02A8008803D0622B02D102A80078EE
:10488000029097F8240000073CD50298002839D000
:1048900042F02000782835D1F86830210155401CBD
:1048A000411CF96002552DE09DF83200622802D0CB
:1048B000682806D00BE03068011D316090F90000D7
:1048C00009E03068011D3160B0F9000003E0306894
:1048D000011D316000680290002804D5F868411C71
:1048E000F9602D210DE0B88C810704D5F868411CD2
:1048F000F9602B2105E0C00704D5F868411CF96078
:1049000020210155F8680DA940187860114602A8C9
:1049100000F08FF92AE09DF832006C2808D0F86882
:10492000411CF96031680A1D3260096801551DE0BB
:104930003068011D31600068ADF804000020ADF85A
:1049400006004FF0FF30F86101AA02A9404600F0CE
:104950006CF800280AD562E7F868411CF960252147
:1049600001551AB1F868411CF96002556D1C386A8E
:10497000F968401A7969401A3969A0EB010A97F879
:104980002400400712D420208DF80000BAF1010F56
:104990000CDBD346012300AA02A9404600F0B1F97E
:1049A00000287FF43CAFBBF1010BF3D1FB680DAAEB
:1049B00002A9404600F0A5F900287FF430AF30206E
:1049C0008DF80000D7F814B0BBF1010F0BDB012309
:1049D00000AA02A9404600F094F900287FF41FAF16
:1049E000BBF1010BF3D13B697A6802A9404600F0A4
:1049F00088F900287FF413AF97F8240040077FF56B
:104A00001AAE20208DF80000BAF1010FFFF613AEA8
:104A1000012300AA02A9404600F073F900287FF4A0
:104A2000FEAEBAF1010AF3D105E62DE9F04F95B0DB
:104A300080460F461646D7F820A0BAF1000F48BFAF
:104A40006FF0004A00F0F8F9796A401801900FF20F
:104A5000F022D2E90001CDE9020197F828004007D1
:104A600002D40198412805D20DF11009402001908F
:104A700000250AE000F0E6F98146B9F1000FF7D110
:104A80004FF0FF30D2E0AAEB040ABAF1010F74DB59
:104A900002AA31880DF1010000F032FA040000F1A1
:104AA0008480308810B9641E00F17F80A24564DBE9
:104AB000386901992218914251D27D624042B96908
:104AC000401A7969451A97F82800400710D4202029
:104AD0008DF80000012D0BDBAB46012300AA3946FF
:104AE000404600F00EF900285FD1BBF1010BF4D174
:104AF0003B694A463946404600F003F9002854D144
:104B000030208DF80000D7F818B0BBF1010F0ADB98
:104B1000012300AA3946404600F0F3F8002844D1AA
:104B2000BBF1010BF4D17B69BA683946404600F00D
:104B3000E8F8002839D197F8280040070DD5202043
:104B40008DF80000012D08DB012300AA39464046FC
:104B500000F0D7F848BB6D1EF6D100253D61224616
:104B60000DF1010138694844FFF744FC3869201809
:104B7000386136F8020B002885D1786A3969401A05
:104B8000B969401A7969441A97F82800400711D486
:104B900020208DF80000012C0CDB2646012300AA02
:104BA0003946404600F0ADF810B14FF0FF3536E021
:104BB000761EF3D13B694A463946404600F0A1F8DB
:104BC0000028F2D130208DF80000BE69012E09DBEB
:104BD000012300AA3946404600F093F80028E4D1AA
:104BE000761EF5D17B69BA683946404600F089F8EF
:104BF0000028DAD197F8280040070ED520208DF83C
:104C00000000012C09DB012300AA3946404600F0D0
:104C100078F80028C9D1641EF5D13D617D6204A8F1
:104C200081451CBF484600F079F9284615B0BDE81B
:104C3000F08FF0B4C2686F2908BF082405D041F096
:104C40002003782B14BF0A241024182305682E464D
:104C5000642918BF692902D1002D48BF7642002E71
:104C600004BF056A002D09D1082C27D190F828101F
:104C7000090723D517233021D1751FE05D1E2B4670
:104C8000B6FBF4F704FB17663036F6B23A2E24BFB3
:104C9000A1F1510C6644AE543E0003D085689F18C4
:104CA000BD42EBD3082C09D190F82810090705D58F
:104CB000995C302902D05B1E30219954C3F1180150
:104CC00041619A188260026A914207DA511A816141
:104CD000018D4FF6EF721140018510E0002A0ED5CC
:104CE00090F8282002F01402102A08D1426A0369C1
:104CF000D21A8369D21A531A012BA8BF8361F0BC60
:104D00007047F8B504460D4616461F46002077B199
:104D100016F8011B6868A047686030B1E869401C5C
:104D2000E86100207F1EF3D1F2BD4FF0FF30F2BDED
:104D30000000000000000000686C747A4C00000065
:104D40000000000000000000F8B504460D461646BD
:104D50001F4600F027F93B4632462946204601B05F
:104D6000BDE8F04000F036B90278C9B28A421AB103
:104D70001CBF10F8012FF9E718BF0020704750F84A
:104D8000041B61B150F8042BD30744BFA9F1010300
:104D90009A18002342F8043B091FFAD1EFE7704745
:104DA00000F10103810704D010F8011B89B18107CC
:104DB000FAD10268B2F10131914311F0803F04BF92
:104DC00050F8042FF6E710F8011B11B110F8011B81
:104DD000FBE7C01A70470268531C036011707047EC
:104DE000C9B2830706D0521E22D310F8013B994264
:104DF000F7D11FE0083A13D302F1040241EA01217E
:104E000041EA014150F8043B121F21BF4B40A3F17E
:104E1000013C2CEA030C1CF0803FF3D0C9B2001F08
:104E2000083210F8013B521E28BF91EA030FF8D850
:104E300018BF0120401E704780B500F0B3F8012074
:104E400002BD000070B5054605F10F00C408E4007E
:104E5000012000F019F9A5422BD2082C04D2082415
:104E600002E0083000F05AF8244D286801000CD107
:104E7000291D0868B8B10268A24238BF011DF8D3E5
:104E800016E01368A34213D2111D0A68002AF8D154
:104E90000068291D00E0111D0A68824203D01368D2
:104EA000A342F8D304E000F03FF90028D9D1002153
:104EB00021B9012000F02CF9002070BD0E68306887
:104EC000A0F10802A2423CBF7068086007D3A21993
:104ED0000A6073685360001B0A68106034600868D9
:104EE00000281DBF41680029001D00202860012006
:104EF00000F00EF906F1080070BD0000C8070020A0
:104F000070B504460D46164600F04CF83246294668
:104F10002046BDE8704000F04FB8000000B970476F
:104F200010B5A0F108042068082837D310F0070056
:104F300034D1012000F0A8F81948416809B18C4229
:104F400003D26160446017E019464B680BB1A3427D
:104F5000FAD30A6853189C421BD3A34204D1236896
:104F60009A180A600C4607E04A681AB123681B19B0
:104F70009A420ED362604C60616851B12268131985
:104F80008B4206D1002303600868801820604868BF
:104F900060600120BDE8104000F0BAB810BD00000C
:104FA000C807002080B5DFF80C0000F0D1F8806958
:104FB00002BD0000D406002030B438B90FF244001E
:104FC000D0E90045C2E90045002001E00170012060
:104FD00030BC704730B439B90FF23000D0E9004529
:104FE000C3E9004500200BE012B96FF0010007E0B3
:104FF00008B10A7802800978481E8041C043C00F7A
:1050000030BC7047000000000000000000000000FD
:105010000000000010B5434C2068A0B3201D00F034
:1050200099F804F1080000F095F804F10C0000F084
:1050300091F804F1100000F08DF804F1140000F074
:1050400089F804F1180000F085F804F11C0000F064
:1050500081F804F1200000F07DF804F1240000F054
:105060007BF804F1280000F077F804F12C0000F040
:1050700073F804F1300000F06FF804F13400BDE87B
:10508000104000F069B810BD38B50446254D2868B9
:1050900090BB281D00F05DF805F1080000F059F8FC
:1050A00005F10C0000F055F805F1100000F051F882
:1050B00005F1140000F04DF805F1180000F049F872
:1050C00005F11C0000F045F805F1200000F041F862
:1050D00005F1240000F03FF805F1280000F03BF84E
:1050E00005F12C0000F037F805F1300000F033F83E
:1050F00005F1340000F02FF801202860052C06D2BD
:1051000005EB84002430BDE8324000F026B831BD04
:10511000052805D2034901EB8000243000F01EB8B9
:1051200070470000880700200649086808B1002081
:105130007047054808600549C908C900091A016097
:10514000704700BFD4070020E00B0020E00D0020D6
:10515000704770477047704770477047704700004E
:1051600010B586B001214FF40010FDF724FE012197
:105170004FF48170FDF704FE00F0FAF901214FF4BD
:105180000010FDF72AFE00214FF40010FDF725FE68
:10519000DFF80844042206212046FDF773FE0422AE
:1051A00009212046FDF76EFE4020009002208DF878
:1051B00004008DF8050001208DF8060000208DF810
:1051C000070000A92046FDF725FE4FF4007000906F
:1051D00000A92046FDF71EFE0420009000208DF857
:1051E00004008DF8070000A9DFF8B403FDF712FEF4
:1051F0000221082000F0F0F90020ADF80C004BF679
:10520000FF70ADF80E000020ADF810004FF4806084
:10521000ADF812004FF48040ADF81400DFF88403BD
:10522000029002A9DFF88003FDF767FE0022032148
:1052300000F03BF800F011F8CF2200F00FF8142036
:1052400000F09BF900F009F81F22032100F029F873
:1052500000F0D6F9002006B010BDDF220121402069
:1052600025E080B50021472000F0A0F800F01F01E4
:105270001F2913D0C10701D4012002BD810701D429
:10528000022002BD410701D4032002BD010701D461
:10529000042002BDC00601D4052002BD002002BDCD
:1052A0006021462003E001224B214020FFE72DE949
:1052B000F04182B080460F468DF8002000A9002002
:1052C00000F021F9DFF8E04201212046FDF782FEDF
:1052D000DFF8D8524FF440562E60DFF8D41200F0B9
:1052E00062F828B92868411E29600028F5D13DE000
:1052F000002241462046FDF783FE2E60DFF8B412FF
:105300002046FDF7A8FE28B92868411E296000281C
:10531000F4D12BE039462046FDF784FE2E60DFF8FD
:105320009872DFF8981200F03EF840B900F03AF8B1
:1053300028B92868411E29600028F2D116E0012111
:105340002046FDF774FEDFF8788201214046FDF724
:1053500031FF2E60DFF86C6231464046FDF733FFC7
:1053600030B92868411E29600028F5D1022017E0D5
:105370004FF4C040286000F015F80028FBD0012150
:105380002046FDF732FE00214046FDF713FF0021C5
:105390002046FDF74CFE31464046FDF725FF002034
:1053A000BDE8F68139462046FDF762BE2DE9F84397
:1053B00000F09DF800F070F800F0A1F800F071F82E
:1053C00000F082F828B93068411E31600028F7D11A
:1053D00045E000F082F8376000F072F828B93068D4
:1053E000411E31600028F7D139E049462846FDF7D3
:1053F00019FE376000F060F848B96F4900F05DF8B9
:1054000028B93068411E31600028F3D127E000F050
:1054100076F8376000F058F828B93068411E3160DE
:105420000028F7D11BE000F053F8376000F040F897
:1054300028B93068411E31600028F7D10FE000F034
:1054400027F800F04FF800F01EF839462046FDF727
:10545000BAFE30B93068411E31600028F5D1022013
:105460000FE001212846FDF7C0FD002100F03CF8C7
:10547000002100F00EF839462046FDF7B5FE9DF8F4
:105480000000BDE8F2834FF4C04030604E4F7047DB
:1054900001212846FDF7CBBD434D01212846FDF7EC
:1054A000D0BD424E4FF440573760DFF8048170475B
:1054B00046492846FDF7CFBD40492846FDF7D8BDEF
:1054C0003C492846FDF7C7BD41462846FDF7D0BDFB
:1054D000012221462846FDF793BD00222146284699
:1054E000FDF78EBD3A4C01212046FDF763BE044610
:1054F000894600A80021018000A9012003E00121C4
:105500002846FDF767BD30B58FB004460D46012132
:105510004FF40010FDF734FC4FF0007000902D4860
:1055200001900295002005904FF4806006900020C5
:105530000790089009900A9004200B9000200C908E
:105540000D900E90012C04D1039002200490204C69
:1055500005E05CB94020039001200490184C2046DF
:10556000FDF7A0FD00A92046FDF7FCFD0FB030BD02
:1055700001214FF48040FDF727BC01B481B0002029
:10558000009001980749484301E00098401E0090B0
:1055900000980028F9D102B07047000000040240D2
:1055A00000200240A086010000540040C0020020FC
:1055B00001000010820007000400001080000010AD
:1055C000A060024000002020200000100200030024
:1055D000106002401054004030B501F00302920008
:1055E00021F00301054BCC580F259540AC43CC501E
:1055F000CC5890402043C85030BD000008380140CE
:1056000000B585B001214FF48070FDF7B9FB012191
:105610004FF48040FDF7D8FB00208DF810008DF886
:1056200013000420039003A91248FDF7F3FB0221A5
:105630000820FFF7D1FF0420019000208DF808001A
:105640000C208DF8090001208DF80A0001A800F057
:1056500013F808208DF800000F208DF801008DF858
:10566000020001208DF8030000A800F03FF805B00B
:1056700000BD00BF0020024030B50168CB4319498E
:1056800082792AB30A461468234013605368046879
:10569000A34353600379CC18236805682B43236028
:1056A00093680468A3439360D3680468A343D360FA
:1056B00043790568102B07D1916829439160D1681F
:1056C00000680843D06030BDCC182068284303E050
:1056D00000790C1820681840206030BD00BF0249D6
:1056E00008607047003C0140143C014070B50378ED
:1056F0001A460121C478ECB1124B1B6803F4E06335
:10570000C3F5E0631B0A4478C3F10405AC40857817
:105710000F2646FA03F32B4023431B010A4C135573
:1057200000784211094B00F01F0001FA00F043F825
:10573000220070BD5011064A03F01F03994042F841
:10574000201070BD0CED00E000E400E000E100E09E
:1057500080E100E010B590B001217820FDF710FB4A
:1057600001214FF48040FDF72FFB01210120FDF7BF
:1057700019FBDFF810430C22002100F073F80C2213
:10578000012100F06FF80C22042100F06BF80C22CC
:10579000052100F067F800F063F80C220B2100F0FF
:1057A00061F80C22114600F05DF80C220E2100F089
:1057B00059F80C220F2100F055F84DF6B30000F017
:1057C00041F84020009001208DF8070000208DF85E
:1057D000040000A92046FDF71DFBDFF8AC4200F0F5
:1057E0003FF80C22082100F03DF80C22092100F0BE
:1057F00039F80C220A2100F035F84FF4F06000F07F
:1058000021F8402002908020039040200490202026
:1058100005901020069000200790089040200990E5
:105820004FF400300A9000200B900C9002A80D90CD
:105830000E9006A8FEF798FE01211020FEF7C6FE86
:1058400010B010BD009002208DF8040003208DF8E8
:1058500005000020ADF8060000A92046FDF7DABAE1
:105860000C2207212046FDF70DBB884990220A70C3
:10587000874900220A704FF0E041096801700A0A66
:1058800042700A0C8270090EC17070472DE9F74F03
:1058900082469946002400264FF480784FF0400B52
:1058A0007B4D7A4F02E000F071F88046B9F1000FAD
:1058B0000FD04FF4807080450BD1002000F06BF8C2
:1058C000F00200F5006000F055F88346BBF1400F90
:1058D000E9D04BE02DE9F74380461F4600264FF400
:1058E00080796B4C694D0DE04FF0E040007806F890
:1058F0000800761CB6F5006FF6D37F1E01A800F0F5
:10590000C9F88146002F18D04FF48070814514D11A
:105910000020287000F017F8207000F014F8001232
:1059200000F018F8001400F015F8000E00F012F85E
:10593000C117217030202870DCE700F082F849EAB6
:105940000000BDE8FE83BDF80800BDF8061000EBBE
:10595000811070472070BDF80800BDF80610BDF832
:10596000042001EB822100EB8110704748EA0B0014
:10597000BDE8FE8F4FF0E04203E014F80A1011700A
:10598000641C8442F9D3102038705AE0761CA9F1C7
:10599000010901A87EE0387080203870BDF8080049
:1059A000BDF8061000EB81102870BDF80800BDF8A6
:1059B000061000EB811000122870BDF80800BDF839
:1059C0000610BDF8042001EB822100EB81100014C9
:1059D0002870BDF80800BDF80610BDF8042001EBE2
:1059E000822100EB8110000E2870BDF80800BDF880
:1059F0000610BDF8042001EB822100EB8110C117D5
:105A00002970704713B5214A60201070BDF802005C
:105A1000BDF8041001EB80131D4C23701B12237082
:105A2000BDF8003000EB832001EB801001142170E1
:105A3000010E2170C1172170D0201070BDE81340F5
:105A4000FFE710B54FF0807400F00BF803E02CB1C5
:105A500000F007F8641E4028F9D10CB94FF48060BB
:105A600010BD0020094970220A704FF0E04109780A
:105A7000CA0701D501207047490648BF402070473A
:105A800000000000000C0240001002400000017005
:105A90000000027010B54FF480718288521C438858
:105AA00092B2402A01BF00225B1C9BB2B3F5806F0B
:105AB00008D100230488641C0480A4B2022C08BF0F
:105AC0004FF4007182804380084610BDF8B59D4CAC
:105AD00004F11000FDF716F960696421B0FBF1F0E4
