:020000040800F2
:1000000060040020E5390008C9380008CB38000832
:10001000CD380008CF380008D138000800000000B3
:10002000000000000000000000000000D3380008BD
:10003000D538000800000000D7380008D93800087B
:10004000253A0008293A00082D3A0008313A0008FC
:10005000353A0008393A00083D3A0008413A0008AC
:10006000453A0008493A00084D3A0008513A00085C
:10007000553A0008593A00085D3A0008613A00080C
:10008000653A0008693A00086D3A0008713A0008BC
:10009000753A0008793A00087D3A0008813A00086C
:1000A000853A0008893A00088D3A0008913A00081C
:1000B000953A0008993A00089D3A0008A13A0008CC
:1000C000A53A0008A93A0008AD3A0008B13A00087C
:1000D000B53A0008B93A0008BD3A0008C13A00082C
:1000E000DD380008C93A0008CD3A0008D13A0008C6
:1000F000D53A0008D93A0008DD3A0008E13A00088C
:10010000E53A0008E93A0008ED3A0008F13A00083B
:10011000F53A0008F93A0008FD3A0008013B0008EA
:10012000053B0008093B00080D3B0008113B000897
:10013000153B0008193B00081D3B0008213B000847
:10014000253B0008293B00082D3B0008313B0008F7
:10015000353B0008393B00083D3B0008413B0008A7
:10016000453B0008493B00084D3B0008513B000857
:10017000553B0008593B00085D3B0008613B000807
:10018000653B0008000000000000000000000000C7
:10019000000000000000000000000000000000005F
:1001A000000000000000000000000000000000004F
:1001B00000000000000080018001800180018001BA
:1001C0008001800180018001800180018001800127
:1001D000000000008001800100000000000000001D
:1001E0000000000000000000CC00CC00CC00CC00DF
:1001F000CC00CC0000000000000000000000000067
:1002000000000000000000000000000000000000EE
:1002100000000000000000000000000000000000DE
:10022000600C600C600C30063006FE1FFE1F3006AE
:1002300038071803FE1FFE1F180318038C018C01DA
:100240008C01000000008000E003F80F9C0E8C1C65
:100250008C188C009800F801E007800E801C8C1828
:100260008C189C18B80CF00FE00380008000000090
:10027000000000000000000000000E181B0C110C14
:1002800011061106110311039B018E01C038C06CC9
:1002900060446044304430441844186C0C3800000A
:1002A000000000000000E001F003380718061806FF
:1002B0003003F001F000F8009C310E33061E061CDE
:1002C000061C063FFC73F021000000000000000047
:1002D00000000000000000000C000C000C000C00EE
:1002E0000C000C00000000000000000000000000F6
:1002F00000000000000000000000000000000000FE
:10030000000000000000000200038001C000C000E7
:1003100060006000300030003000300030003000FD
:100320003000300060006000C000C00080010003A9
:1003300000020000000020006000C0008001800179
:100340000003000300060006000600060006000683
:10035000000600060003000380018001C000600069
:10036000200000000000000000000000000000006D
:10037000C000C000D806F807E001300338070000CD
:10038000000000000000000000000000000000006D
:10039000000000000000000000000000000000005D
:1003A00080018001800180018001FC3FFC3F8001D1
:1003B0008001800180018001000000000000000039
:1003C000000000000000000000000000000000002D
:1003D000000000000000000000000000000000001D
:1003E0000000000000008001800100010001800089
:1003F00000000000000000000000000000000000FD
:10040000000000000000000000000000E007E0071E
:1004100000000000000000000000000000000000DC
:1004200000000000000000000000000000000000CC
:1004300000000000000000000000000000000000BC
:10044000000000000000C000C0000000000000002C
:10045000000000000000000C000C00060006000672
:100460000003000300038003800180018001C000BD
:10047000C000C0006000600000000000000000003C
:10048000000000000000E003F007380E180C0C1804
:100490000C180C180C180C180C180C180C180C183C
:1004A000180C380EF007E003000000000000000008
:1004B00000000000000000018001C001F00198016F
:1004C000880180018001800180018001800180011C
:1004D0008001800180018001000000000000000018
:1004E000000000000000E003F80F180C0C180C18B6
:1004F00000180018000C000600038001C000600016
:1005000030001800FC1FFC1F00000000000000006D
:10051000000000000000E001F807180E0C0C0C0CA5
:10052000000C0006C003C007000C001800180C18CF
:100530000C18180CF807E003000000000000000091
:10054000000000000000000C000E000F000F800DE6
:10055000C00C600C600C300C180C0C0CFC3FFC3F09
:10056000000C000C000C000C00000000000000005B
:10057000000000000000F80FF80F180018000C0031
:10058000EC03FC071C0E001C0018001800180C18C7
:100590001C0C180EF807E00300000000000000002B
:1005A000000000000000C007F00F381C18181800E9
:1005B0000C00CC03EC0F3C0E1C1C0C180C180C1877
:1005C000181C380EF007E0030000000000000000D7
:1005D000000000000000FC1FFC1F000C00060006CD
:1005E000000380038001C001C000E00060006000E3
:1005F00070003000300030000000000000000000FB
:10060000000000000000E003F007380E180C180C82
:10061000180C3806F007F007180C0C180C180C18FA
:100620000C18380CF80FE003000000000000000078
:10063000000000000000E003F007380E1C0C0C184E
:100640000C180C181C1C381EF81BE0190018000CA4
:10065000000C1C0EF807F001000000000000000074
:10066000000000000000000000000000000000008A
:100670008001800100000000000000000000000078
:100680000000000080018001000000000000000068
:10069000000000000000000000000000000000005A
:1006A0008001800100000000000000000000000048
:1006B00000000000800180010001000180000000B6
:1006C000000000000000000000000000000000002A
:1006D000000000000010001C800FE003F80018006C
:1006E000F800E003800F001C001000000000000074
:1006F00000000000000000000000000000000000FA
:1007000000000000F81F000000000000F81F0000BB
:1007100000000000000000000000000000000000D9
:1007200000000000000000000000000000000000C9
:100730000000000008003800F001C007001F00188A
:10074000001FC007F0013800080000000000000092
:10075000000000000000E003F80F180C0C180C1843
:100760000018000C000600038001C000C000C0009B
:1007700000000000C000C0000000000000000000F9
:100780000000000000000000E00718180420C22943
:10079000224A114409440944094409221113E20C74
:1007A000024004201818E0070000000000000000CC
:1007B00000000000000080038003C006C006C006E1
:1007C000600C600C301830183018F83FF83F1C707F
:1007D0000C600C6006C006C00000000000000000B5
:1007E000000000000000FC03FC0F0C0C0C180C189F
:1007F0000C180C0CFC07FC0F0C180C300C300C30D7
:100800000C300C18FC1FFC0700000000000000006A
:10081000000000000000C007F01F38381C300C70CA
:1008200006600600060006000600060006000660D8
:100830000C701C30F01FE0070000000000000000FA
:10084000000000000000FE03FE0F060E061806184A
:100850000630063006300630063006300630061800
:100860000618060EFE0FFE03000000000000000048
:10087000000000000000FC3FFC3F0C000C000C00DE
:100880000C000C00FC1FFC1F0C000C000C000C00EA
:100890000C000C00FC3FFC3F0000000000000000CA
:1008A000000000000000F83FF83F18001800180092
:1008B00018001800F81FF81F18001800180018007A
:1008C00018001800180018000000000000000000C8
:1008D000000000000000E00FF83F3C780E6006E0EA
:1008E00007C00300030003FE03FE03C007C006C0E9
:1008F0000EC03CF0F83FE00F0000000000000000D8
:100900000000000000000C300C300C300C300C30BB
:100910000C300C30FC3FFC3F0C300C300C300C30F9
:100920000C300C300C300C300000000000000000D7
:100930000000000000008001800180018001800132
:10094000800180018001800180018001800180019F
:100950008001800180018001000000000000000093
:100960000000000000000006000600060006000669
:10097000000600060006000600060006000618062F
:1009800018063807F003E001000000000000000036
:1009900000000000000006300618060C06060603DC
:1009A0008601C60066007600DE008E01060306069C
:1009B000060C06180630066000000000000000006B
:1009C00000000000000018001800180018001800AF
:1009D0001800180018001800180018001800180057
:1009E00018001800F81FF81F0000000000000000A9
:1009F0000000000000000EE01EF01EF01EF036D8D1
:100A000036D836D836D866CC66CC66CCC6C6C6C60E
:100A1000C6C6C6C686C386C300000000000000002C
:100A20000000000000000C301C303C303C306C30CA
:100A30006C30CC30CC308C310C330C330C360C3663
:100A40000C3C0C3C0C380C30000000000000000096
:100A5000000000000000E007F81F1C380E70066060
:100A600003C003C003C003C003C003C003C00660CB
:100A70000E701C38F81FE0070000000000000000A6
:100A8000000000000000FC0FFC1F0C380C300C3084
:100A90000C300C300C18FC1FFC070C000C000C0078
:100AA0000C000C000C000C00000000000000000016
:100AB000000000000000E007F81F1C380E70066000
:100AC00003E003C003C003C003C003C007E0066324
:100AD0000E3F1C3CF83FE0F700C0000000000000A3
:100AE000000000000000FE0FFE1F06380630063032
:100AF00006300638FE1FFE0706030606060C06181B
:100B000006180630063006600000000000000000F5
:100B1000000000000000E003F80F1C0C0C180C187B
:100B20000C001C00F803E00F001E003806300630F1
:100B30000E301C1CF80FE007000000000000000051
:100B4000000000000000FE7FFE7F80018001800128
:100B5000800180018001800180018001800180018D
:100B60008001800180018001000000000000000081
:100B70000000000000000C300C300C300C300C3049
:100B80000C300C300C300C300C300C300C300C3085
:100B90000C301818F81FE0070000000000000000EB
:100BA00000000000000003600630063006300C181C
:100BB0000C180C18180C180C380E3006300670077C
:100BC00060036003C001C0010000000000000000DD
:100BD0000000000000000360C361C361C3616633AD
:100BE000663366336633663366336C1B6C1B6C1B73
:100BF0002C1A3C1E380E380E0000000000000000C9
:100C00000000000000000FE00C7018303018700C6D
:100C1000600EC00780038003C003E006700C301C28
:100C200018180C300E6007E0000000000000000003
:100C300000000000000003C006600C301C383818AB
:100C4000300C6006E007C003800180018001800154
:100C50008001800180018001000000000000000090
:100C6000000000000000FC7FFC7F006000300018E6
:100C7000000C000600038001C00060003000180076
:100C80000C000600FE7FFE7F000000000000000058
:100C9000000000000000E003E0036000600060006E
:100CA0006000600060006000600060006000600044
:100CB0006000600060006000600060006000E003B1
:100CC000E0030000000030003000600060006000C1
:100CD000C000C000C000C00180018001800100038D
:100CE00000030003000600060000000000000000F2
:100CF000000000000000E003E00300030003000325
:100D000000030003000300030003000300030003CB
:100D10000003000300030003000300030003E003DB
:100D2000E003000000000000C001C0016003600398
:100D3000600330063006180C180C0000000000009C
:100D400000000000000000000000000000000000A3
:100D50000000000000000000000000000000000093
:100D60000000000000000000000000000000000083
:100D7000000000000000FFFFFFFF00000000000077
:100D80000000000000000C000C000C000C000C0027
:100D90000C00000000000000000000000000000047
:100DA0000000000000000000000000000000000043
:100DB0000000000000000000000000000000000033
:100DC000F003F8071C0C0C0C000FF00FF80C0C0CC7
:100DD0000C0C1C0FF80FF0180000000000000000C1
:100DE000000000000000180018001800180018008B
:100DF000D803F80F380C18181818181818181818DD
:100E00001818380CF80FD80300000000000000008C
:100E100000000000000000000000000000000000D2
:100E2000C003F007300E180C180018001800180046
:100E3000180C300EF007C003000000000000000096
:100E4000000000000000001800180018001800182A
:100E5000C01BF01F301C181818181818181818186C
:100E60001818301CF01FC01B00000000000000001C
:100E70000000000000000000000000000000000072
:100E8000C003F00F300C1818F81FF81F18001800D6
:100E90003818301CF00FC0070000000000000000F0
:100EA000000000000000800FC00FC000C000C000A4
:100EB000F007F007C000C000C000C000C000C000C4
:100EC000C000C000C000C000000000000000000022
:100ED0000000000000000000000000000000000012
:100EE000E00DF80F180E0C0C0C0C0C0C0C0C0C0C70
:100EF0000C0C180EF80FE00D000C0C0C1C06F8077B
:100F0000F001000000001800180018001800180078
:100F1000D807F80F381C18181818181818181818A7
:100F20001818181818181818000000000000000001
:100F3000000000000000C000C00000000000000031
:100F4000C000C000C000C000C000C000C000C000A1
:100F5000C000C000C000C000000000000000000091
:100F6000000000000000C000C00000000000000001
:100F7000C000C000C000C000C000C000C000C00071
:100F8000C000C000C000C000C000C000C000F80029
:100F90007800000000000C000C000C000C000C009D
:100FA0000C0C0C060C038C01CC006C00FC009C01AA
:100FB0008C030C030C060C0C000000000000000069
:100FC000000000000000C000C000C000C000C00061
:100FD000C000C000C000C000C000C000C000C00011
:100FE000C000C000C000C000000000000000000001
:100FF00000000000000000000000000000000000F1
:101000007C3CFF7EC7E383C183C183C183C183C1AD
:1010100083C183C183C183C10000000000000000C0
:1010200000000000000000000000000000000000C0
:101030009807F80F381C18181818181818181818C6
:1010400018181818181818180000000000000000E0
:101050000000000000000000000000000000000090
:10106000C003F00F300C1818181818181818181892
:101070001818300CF00FC003000000000000000042
:101080000000000000000000000000000000000060
:10109000D803F80F380C181818181818181818183A
:1010A0001818380CF80FD80318001800180018008A
:1010B0001800000000000000000000000000000018
:1010C000C01BF01F301C18181818181818181818FA
:1010D0001818301CF01FC01B00180018001800184A
:1010E00000180000000000000000000000000000E8
:1010F000B007F003700030003000300030003000E6
:10110000300030003000300000000000000000001F
:1011100000000000000000000000000000000000CF
:10112000E003F003380E180C3800F003C007000C81
:10113000180C380EF007E00300000000000000006B
:1011400000000000000000008000C000C000C000DF
:10115000F007F007C000C000C000C000C000C00021
:10116000C000C000C00780070000000000000000B1
:10117000000000000000000000000000000000006F
:1011800018181818181818181818181818181818DF
:101190001818381CF01FE0190000000000000000C3
:1011A000000000000000000000000000000000003F
:1011B0000C18180C180C180C30063006300660039A
:1011C00060036003C001C0010000000000000000D7
:1011D000000000000000000000000000000000000F
:1011E000C141C141C36163636363636336363636AD
:1011F00036361C1C1C1C1C1C0000000000000000DB
:1012000000000000000000000000000000000000DE
:101210001C38381C300C60066003600360036003F8
:101220006006300C381C1C38000000000000000074
:1012300000000000000000000000000000000000AE
:101240001830301830187018600C600CE00CC006B4
:10125000C00680038003800380018001C001F0008C
:10126000700000000000000000000000000000000E
:10127000FC1FFC1F000C000600038001C000600082
:1012800030001800FC1FFC1F0000000000000000E0
:1012900000000000000000038001C000C000C0008A
:1012A000C000C000C000600060003000600040006E
:1012B000C000C000C000C000C000C000800100032A
:1012C0000000000000008001800180018001800199
:1012D0008001800180018001800180018001800106
:1012E00080018001800180018001800180018001F6
:1012F0008001000000006000C000C001800180018A
:10130000800180018001000300030006000300014A
:10131000800180018001800180018001C0006000A7
:1013200000000000000000000000000000000000BD
:1013300000000000F010F81F080F0000000000007F
:10134000000000000000000000000000000000009D
:101350000000000080B500F098FB00F092FB00F068
:1013600094FB8022012100F062FB00F08EFB8022C2
:10137000022100F05CFB00F088FB0222032100F058
:1013800056FB00F082FB0322042100F050FB00F02A
:101390007CFB0122092100F04AFB00F076FB57227A
:1013A0000B2100F044FB00F070FB61220E2100F0E5
:1013B0003EFB00F06AFB40220F2100F038FB00F0FA
:1013C00064FB0122112100F032FB00F05EFB62227F
:1013D000122100F02CFB00F058FBC722132100F073
:1013E00026FB00F052FB3A22142100F020FB00F013
:1013F0004CFB2422162100F01AFB00F046FB1822B9
:10140000172100F014FB00F040FB0422182100F02B
:101410000EFB00F03AFB0122192100F008FB00F05E
:1014200034FB81221A2100F002FB00F02EFB002287
:101430001E2100F0FCFA00F028FB3C22242100F0E1
:10144000F6FA00F022FB3622252100F0F0FA00F037
:101450001CFB7222262100F0EAFA00F016FB08229B
:10146000272100F0E4FA00F010FB0822282100F008
:10147000DEFA00F00AFB1522292100F0D8FA00F06C
:1014800004FB00F0FAFA00F000FB00F0F2FA00F0C2
:10149000FCFA08222C2100F0CAFA00F0F6FA122217
:1014A000322100F0C4FA00F0F0FA00F0DEFA00F0A9
:1014B000ECFA3F22342100F0BAFA00F0E6FA00F02C
:1014C000D0FA00F0E2FA3A22362100F0B0FA00F049
:1014D000DCFA7222382100F0AAFA00F0D6FA57227C
:1014E000392100F0A4FA00F0D0FACC223A2100F021
:1014F0009EFA00F0CAFA04223B2100F098FA00F0AC
:10150000C4FA99223D2100F092FA00F0BEFA0222BC
:101510003E2100F08CFA00F0B8FAC1223F2100F021
:1015200086FA00F0B2FAC022402100F080FA00F002
:10153000ACFA4122114600F07AFA00F0A6FAC02275
:10154000422100F074FA00F0A0FA0A22432100F0D0
:101550006EFA00F09AFAF022442100F068FA00F0E6
:1015600094FA4622452100F062FA00F08EFA6222D7
:10157000462100F05CFA00F088FA2A22472100F0A8
:1015800056FA00F082FA3C22482100F050FA00F0AE
:101590007CFAFC224A2100F04AFA00F076FAFC229A
:1015A0004B2100F044FA00F070FA7F224C2100F049
:1015B0003EFA00F06AFA7F224D2100F038FA00F07E
:1015C00064FA7F224E2100F032FA00F05EFA98228F
:1015D0004F2100F02CFA00F058FA9822502100F028
:1015E00026FA00F052FA00F038FA00F04EFA2822FB
:1015F000522100F01CFA00F048FA7022532100F04A
:1016000016FA00F042FA9822542100F010FA00F085
:101610003CFA1A22582100F00AFA00F036FA852224
:10162000592100F004FA00F030FAA9225A2100F002
:10163000FEF900F02AFA64225B2100F0F8F900F0CC
:1016400024FA84225C2100F0F2F900F01EFA532201
:101650005D2100F0ECF900F018FA0E225E2100F096
:10166000E6F900F012FAF0225F2100F0E0F900F054
:101670000CFA00F0D6F900F008FAF022612100F02F
:10168000D6F900F002FA00F0E4F900F0FEF900F0FB
:10169000DCF900F0FAF90222642100F0C8F900F048
:1016A000F4F92022652100F0C2F900F0EEF900F013
:1016B000C8F900F0EAF90A22692100F0B8F900F04F
:1016C000E4F95A226B2100F0B2F900F0DEF90422AD
:1016D0006C2100F0ACF900F0D8F955226D2100F032
:1016E000A6F900F0D2F900F0A8F900F0CEF99D2299
:1016F0006F2100F09CF900F0C8F92122702100F060
:1017000096F900F0C2F97822712100F090F900F00A
:10171000BCF900F0BAF91122722100F088F900F04A
:10172000B4F900F0B2F90122732100F080F900F061
:10173000ACF91022742100F07AF900F0A6F9102219
:10174000752100F074F900F0A0F90122762100F073
:101750006EF900F09AF90222772100F068F900F0A2
:1017600094F912227A2100F062F900F08EF9082231
:101770007B2100F05CF900F088F916227C2100F052
:1017800056F900F082F930227D2100F050F900F086
:101790007CF95E227E2100F04AF900F076F972228F
:1017A0007F2100F044F900F070F98222802100F0DE
:1017B0003EF900F06AF98E22812100F038F900F03C
:1017C00064F99A22822100F032F900F05EF9A42235
:1017D000832100F02CF900F058F9AC22842100F0AC
:1017E00026F900F052F9B822852100F020F900F026
:1017F0004CF9C322862100F01AF900F046F9D622EE
:10180000872100F014F900F040F9E622882100F069
:101810000EF900F03AF9F222892100F008F900F0FF
:1018200034F924228A2100F002F900F02EF98022F6
:101830008C2100F0FCF800F028F97D22902100F0C6
:10184000F6F800F022F97B22912100F0F0F800F088
:101850001CF902229D2100F0EAF800F016F902229C
:101860009E2100F0E4F800F010F97A229F2100F0A8
:10187000DEF800F00AF97922A02100F0D8F800F093
:1018800004F94022A12100F0D2F800F0FEF8502225
:10189000A42100F0CCF800F0F8F86822A52100F0AF
:1018A000C6F800F0F2F84A22A62100F0C0F800F0D5
:1018B000ECF8C122A82100F0BAF800F0E6F8EF2217
:1018C000A92100F0B4F800F0E0F89222AA2100F07B
:1018D000AEF800F0DAF80422AB2100F0A8F800F02E
:1018E000D4F88022AC2100F0A2F800F0CEF88022DB
:1018F000AD2100F09CF800F0C8F88022AE2100F085
:1019000096F800F0C2F88022AF2100F090F800F0C5
:10191000BCF8F222B22100F08AF800F0B6F82022DA
:10192000B32100F084F800F0B0F82022B42100F0D8
:101930007EF800F0AAF800F07CF800F0A6F800F0BD
:1019400074F800F0A2F800F070F800F09EF8AE22F3
:10195000BB2100F06CF800F098F87F22BC2100F069
:1019600066F800F092F87F22BD2100F060F800F0E8
:101970008CF87F22BE2100F05AF800F086F87F2212
:10198000BF2100F054F800F080F87F22BF2100F062
:101990004EF800F07AF8AA22C02100F048F800F0D2
:1019A00074F8C022C12100F042F800F06EF8012264
:1019B000C22100F03CF800F068F84E22C32100F08C
:1019C00036F800F062F80522C62100F030F800F089
:1019D0005CF88122FFE7C72100F029F800F055F8F4
:1019E000E022C92100F023F800F04FF8E822CA21D4
:1019F00000F01DF800F049F8F022CB2100F017F8B4
:101A000000F043F8D822CC2100F011F800F03DF8A6
:101A10009322CD2100F00BF80220BDE8024000F037
:101A200023BBF0226021084647E0AF22B6216020A8
:101A300043E00022B52160203FE000226E216020BB
:101A40003BE000226621602037E000226321602015
:101A500033E00022622160202FE00022512160202B
:101A60002BE000223521602027E000223321602076
:101A700023E000222B2160201FE000222A21602089
:101A80001BE000220021602017E0022000F0ECBAE9
:101A900010B504461C2100F00EF820701D2100F046
:101AA0000AF860700B2100F006F8A0700A2100F01F
:101AB00002F8E07010BD60204CE02DE9F84380464C
:101AC0000E46144642F210752F46DFF8649101214C
:101AD000484600F0BDFB574900F039F820B93846B8
:101AE000471E0028F7D128E000224146484600F072
:101AF000C5FB2F46504900F02AF820B93846471E4A
:101B00000028F7D119E0F1B2484600F0C9FB2F4692
:101B10004A4E00F01BF820B93846471E0028F8D17D
:101B20000BE02146484600F0BBFB2F4600F00EF8C4
:101B300028B93846471E0028F8D1FF2004E00121CB
:101B4000484600F090FB0020BDE8F283314648464D
:101B500000F0BFBB2DE9F84304460F4642F210786F
:101B60004546334E0121304600F072FBDFF8C49049
:101B700000F06AF820B92846451E0028F8D149E04F
:101B800000222146304600F079FB45462A4900F004
:101B90005CF820B92846451E0028F7D13AE0F9B292
:101BA000304600F07DFB4546244900F04EF820B950
:101BB0002846451E0028F7D12CE0B08A40F480600A
:101BC000B0820121304600F043FB454600F03CF86E
:101BD00020B92846451E0028F8D11BE001222146E5
:101BE000304600F04BFB4546154900F02EF820B971
:101BF0002846451E0028F7D10CE00021304600F0B1
:101C000045FB45460F4900F020F828B92846451EF7
:101C10000028F7D1FF2008E00121304600F023FB27
:101C20003046BDE8F24300F03DBBBDE8F283000062
:101C300000540040010003008200070084000700F8
:101C400002000300400003004946304600F041BB5B
:101C500010B5002000F064FB012000F061FB0220C1
:101C600000F05EFB032000F05BFB002000F075FB42
:101C700000F014FC0021202000F084FCDFF8044474
:101C8000201D00F031FEA0686421B0FBF1F0B0F13E
:101C9000807F0DD2DFF8F0130002000A401E48607A
:101CA000DFF8E803F0220270002088600720086057
:101CB00000F091F90121022000F06FFB00F09CFE82
:101CC0004FF6FF7001F032F91F2001F023F901F007
:101CD00029F90FF2E83100F068F800F06BF80028FD
:101CE0003FD104F11400FFF7D3FE01F01BF90FF20E
:101CF000E03100F05AF84FF4A073F02200210020E8
:101D000001F092F901F0B5F90121E14801F016FB6B
:101D1000012001F085FB012001F08CFB09E06278D5
:101D20003A2100F062F82070FF2804BF022000F082
:101D300014FB002000F025FB012000F022FB0A200C
:101D400000F092F9D34801F00AFC60806288D2B2B8
:101D5000552100F04AF860784C283CBF4C20607058
:101D6000DDE74FF4784001F0D5F801F0DBF80FF231
:101D7000743100F01AF801F0D5F80FF27C31C08808
:101D80008004000C01F035F901F0CCF80FF280313D
:101D9000C08800EB800080B201F02BF9002000F039
:101DA000E6FA022000F0D9FAFEE7C0884004000CF1
:101DB00001F01FB980B500F01BF8802200F014F884
:101DC00008B1FF2002BDFFF7C5FA632200F00CF84E
:101DD0001022402100F009F80822152100F005F832
:101DE00000F04CF8002002BD12216020FFF765BE14
:101DF00010B586B001214FF4001000F0CEFD012196
:101E0000022000F0AFFDA44C0422092100F0D7F815
:101E1000042200F0D3F84FF4107000F0D6F88DF8DB
:101E2000050001208DF8060000208DF8070000A9AC
:101E3000204601F09FFB994C204600F073F90121E8
:101E4000204600F0FBF90020ADF80C004BF6FF70C7
:101E5000ADF80E00FE20ADF810004FF48060ADF834
:101E600012004FF48040ADF8140047F23050029059
:101E700002A9204600F07FF906B010BD70B596B0FB
:101E8000012140F2811000F06DFD0121012000F0E0
:101E900072FD834C0D2200F091F8824E0D22082134
:101EA00000F090F80D22092100F08CF80D220A2193
:101EB00000F088F80D220B2100F084F80D220C218F
:101EC00000F080F80D220E2100F07CF8764D0D22F6
:101ED000052100F070F80D22062100F06CF80D22AB
:101EE000072100F068F80D22042100F064F84FF497
:101EF000BE40009002208DF8040003208DF80500FC
:101F000000208DF8060001208DF8070000A930465A
:101F100001F030FBF020009000A9284601F02AFBD8
:101F2000402000F052F88DF8060000A9204601F08C
:101F300021FB00200290ADF80C008020ADF80E00CF
:101F40004020ADF810000020ADF81200ADF81400EC
:101F500002A801F04DFA01214FF4800000F002FDCB
:101F60004B4C204601F062F94FF0007006904F484C
:101F700007904F4808900020099001200A90002007
:101F80000B900C904FF480500D904FF400500E9039
:101F90004FF480700F904FF4003010900420119097
:101FA0000320129000201390149006A9204601F0FF
:101FB0009DF916B070BD284601F014BB06212046DD
:101FC00001F010BB304601F00DBB009002208DF8EF
:101FD00004000020704710B58CB001214FF48060E0
:101FE00000F0E4FC0121202000F0BCFC4FF4007064
:101FF000009003208DF8040000208DF8070000A950
:102000002C4801F0B7FA002002904FF40030039002
:1020100000200490059002A801F046FA06A801F0FD
:1020200039FA4FF00070069000208DF81C00012056
:102030008DF81D00002008900A9001208DF82C00DA
:10204000144C06A9204601F005FA032301220721BA
:10205000204601F040FA0121204601F033FA2046E3
:1020600001F078FA0CB010BD134908600868002828
:10207000FCD170471048016811B10168491E016028
:10208000704700000000002010E000E023ED00E0B9
:102090002864024000220140000402400054004035
:1020A00000000240001C02400020024028000550B1
:1020B0000200006800140240580000202020204345
:1020C000616D65726120496E69742E2E00000000FA
:1020D0002020202020202020202020202020202000
:1020E0000000000043616D65726120496E69742EC5
:1020F0002E206661696C7300436865636B207468A9
:10210000652043616D657261204857200000000022
:102110002020616E642074727920616761696E208D
:102120000000000080B54049884208D101214FF4E9
:10213000001000F044FC00214FF4001016E03B4971
:10214000884208D101214FF4800000F038FC0021C2
:102150004FF480000AE0364988420BD101214FF448
:10216000000000F02CFC00214FF40000BDE804400A
:1021700000F025BC01BD7FB504460D46A68800A829
:1021800000F0B2FB02992B48B1FBF0F04FF6C072A1
:1021900032400243A28022884FF6FE731A4022800A
:1021A0002A68254B9A4208D25200B1FBF2F18AB25A
:1021B000042A38BF042189B220E0EB884BF6FF7671
:1021C000B34204BF02EB4202B1FBF2F106D0192385
:1021D0005A43B1FBF2F141F4804189B20A0504BFD0
:1021E00041F0010189B241F4004189B280B24FF45B
:1021F000967250434FF47A7290FBF2F0401C2084A8
:10220000A183208840F00100208020884FF6F5311E
:102210000840A9880843698908432080A88929893A
:10222000084320817FBD000000540040005800405A
:10223000005C004040420F00A18601000029018897
:1022400012BF41F001014FF6FE721140018070474C
:102250000029018819BF4FF4807211434FF6FF62C5
:102260001140018070470029018819BF4FF40072A6
:1022700011434FF6FF52114001807047002A14BFEE
:1022800041F0010101F0FE0101827047002901883F
:1022900012BF41F480614FF6FF3211400180704758
:1022A00001827047008AC0B270470029818812BF3E
:1022B00041F400614FF2FF721140818070470029A4
:1022C000818812BF41F480514EF6FF721140818027
:1022D00070470022838A008B43EA004008400002D6
:1022E000000A884208BF01221046704782B00246A9
:1022F00000200190009000920A0F01920902090A41
:10230000019A12B1009A143202E0090C009A1832B4
:102310000092009A12680A4218BF012002B070476A
:102320001CB5044601210FF23C1050F8240000F0C7
:1023300019FB0FF2281030F81400009001208DF8DE
:10234000040000F079F88DF8050000A9DFF8040119
:1023500050F8240001F00EF913BDDFF8F81051F821
:1023600020100FF2F80232F8100008837047DFF8EF
:10237000E41051F820100FF2E40232F81000488304
:102380007047DFF8D01051F820104A690FF2CC03E3
:1023900033F8100050404861704770B586B005466C
:1023A0000E462C4601210FF2D40050F8240000F014
:1023B000D9FA00F049F800208DF810008DF81300CC
:1023C0000FF2B00030F81400039003A9DFF8880082
:1023D00050F8240001F0CEF8012E2BD10FF2B400FA
:1023E000215C0FF2AC00205C01F00EF90FF29800B6
:1023F00030F81400019000208DF80800002D14BF63
:102400000C2008208DF8090001208DF80A0001A891
:1024100001F00EF90FF28000205C8DF800000F2013
:102420008DF801008DF8020001208DF8030000A84E
:1024300001F044F906B070BD00208DF806000120BF
:102440008DF807000220704701214FF4804000F012
:10245000ADBA000028000020480000200004000160
:102460000002800020000000400000000001000089
:1024700004000000010000200080000001000000B6
:102480000400000040000000010000200080000067
:1024900000020600000D0F000628280010B586B0C7
:1024A00001214FF4001000F078FA01214FF48170FF
:1024B00000F058FA00F0F5F901214FF4001000F097
:1024C0007EFA00214FF4001000F079FA40200090CD
:1024D00002208DF804008DF8050001208DF806001B
:1024E00000208DF80700DFF8C44300A9204601F062
:1024F00041F84FF40070009000A9204601F03AF82E
:1025000004220621204601F06DF80422092120460C
:1025100001F068F80420009000208DF804008DF888
:10252000070000A9DFF8880301F024F80221082041
:1025300001F06AF80020ADF80C004BF6FF70ADF822
:102540000E000020ADF810004FF48060ADF81200CE
:102550004FF48040ADF81400DFF85803029002A950
:10256000DFF85403FFF707FE00F008F80122FF210F
:10257000422000F01FF8002006B010BD00221F21ED
:10258000462017E080B5820606D54223002906BF03
:10259000C243D2B2024606E00522104218BF4623CB
:1025A000F4D1032002BD01211846FFE700F018F81E
:1025B000002002BD70B500F00FF8032100F08FF885
:1025C000002E0CBF45EA000220EA05020321204646
:1025D00000F006F8002070BD04460D461646704710
:1025E0002DE9F04182B080460F468DF8002000A909
:1025F000002000F021F9DFF8C04201212046FFF75A
:1026000027FEDFF8B8524FF440562E60DFF8B012C4
:1026100000F062F828B92868411E29600028F5D129
:102620003DE0002241462046FFF728FE2E60DFF8FD
:1026300094122046FFF74DFE28B92868411E2960F4
:102640000028F4D12BE039462046FFF729FE2E6002
:10265000DFF87472DFF8741200F03EF840B900F051
:102660003AF828B92868411E29600028F2D116E0FE
:1026700001212046FFF719FEDFF854820121404670
:1026800000F05CFE2E60DFF84C623146404600F000
:102690005EFE30B92868411E29600028F5D102206D
:1026A00017E04FF4C040286000F015F80028FBD078
:1026B00001212046FFF7D7FD0021404600F03EFEF5
:1026C00000212046FFF7F1FD3146404600F050FE64
:1026D0000020BDE8F68139462046FFF707BE2DE908
:1026E000F84300F09DF800F07FF800F0A1F800F04A
:1026F00063F800F082F828B93068411E3160002884
:10270000F7D145E000F082F8376000F069F828B9A9
:102710003068411E31600028F7D139E0494628462B
:10272000FFF7BEFD376000F064F848B9664900F075
:1027300061F828B93068411E31600028F3D127E0E4
:1027400000F076F8376000F058F828B93068411E7C
:1027500031600028F7D11BE000F053F8376000F03B
:1027600032F828B93068411E31600028F7D10FE0F7
:1027700000F02DF800F04FF800F02DF83946204613
:1027800000F0E5FD30B93068411E31600028F5D118
:1027900002200FE001212846FFF765FD002100F02F
:1027A0003CF8002100F014F83946204600F0E0FD26
:1027B0009DF80000BDE8F283404E4FF4405737606B
:1027C000DFF8FC80704744492846FFF782BD0121AD
:1027D0002846FFF76ABD4FF4C04030603F4F704756
:1027E00038492846FFF775BD334D01212846FFF7CC
:1027F00066BD36492846FFF779BD41462846FFF7B2
:1028000075BD012221462846FFF738BD002221462A
:102810002846FFF733BD324C0121204600F08EBD23
:102820000446894600A80021018000A9012003E098
:1028300001212846FFF70CBD30B58FB004460D4688
:1028400001214FF4001000F08DF84FF0007000905F
:10285000244801900295002005904FF48060069076
:1028600000200790089009900A9004200B90002007
:102870000C900D900E90012C04D103900220049036
:10288000174C05E05CB94020039001200490104CE7
:10289000204600F0CBFC00A9204600F027FD0FB039
:1028A00030BD01214FF4804000F080B800040240A8
:1028B00000200240A0860100005400405400002087
:1028C00001000010820007000400001080000010CA
:1028D000A060024000002020020003002000001041
:1028E000106002401054004030B539494A68394BF5
:1028F000394C02F00C02042A02D0082A02D016E059
:10290000234614E00A680D6805F03F0552024CBFEB
:10291000B4FBF5F2B3FBF5F20B68C3F388135A432B
:102920000B68C3F301435B1C5B00B2FBF3F3036072
:102930004B682A4A0468C3F303139B5C24FA03F32D
:1029400043604B684468C3F382239B5C24FA03F31F
:10295000836049684368C1F34231895C23FA01F11D
:10296000C16030BD1E4A0029116814BF084321EA26
:102970000000106070471B4A0029116814BF08430B
:1029800021EA000010607047174A0029116814BF3F
:10299000084321EA000010607047144A00291168BA
:1029A00014BF084321EA000010607047104A002954
:1029B000116814BF084321EA0000106070470D4AF7
:1029C0000029116814BF084321EA00001060704715
:1029D000043802400024F40040787D0138000020D3
:1029E0003038024034380240383802404038024023
:1029F00044380240203802402DE9F84F0020009072
:102A000000F04AFB00F0C5FB00F044FB4FF0D0445F
:102A1000002020806088009041F2180540F23F16A7
:102A200040F202374FF4E85840F2391940F2371AB1
:102A300041F2B07B40F202204FF4E0614FF480722B
:102A4000009B49F2203C634540F0A280E5232380AF
:102A50004FF40043638000F023FA41F230016180BB
:102A600000F02AFA00F00FFA00F014FB1220208088
:102A7000A4F8029000F00EFB00F004FB2020208060
:102A80000020608021202080002060803020208075
:102A9000062060803120208040F2011060803220CA
:102AA000208003206080352020804FF48370608078
:102AB0003620208040F602306080372020806780FA
:102AC0003820208040F20770608039202080072065
:102AD00060803C2020804FF4C06060803D202080DA
:102AE00040F20B2060805020208000206080512028
:102AF0002080EF20608052202080002060805320C2
:102B000020806680602020804FF41C50608061200F
:102B10002080012060806A2020800020608080204A
:102B20002080002060808120208000206080822022
:102B3000208000206080832020800020608084200E
:102B400020800020608085202080002060809020F0
:102B500020801020608092202080002060809320C0
:102B6000208003206080952020804FF48870608052
:102B700097202080002060809820208000206080A6
:102B80000320208065800720208040F273106EE1D2
:102B9000009B49F2253C634540F0968000F080F9A7
:102BA000658000F089F900F06EF900F073FA1220E8
:102BB0002080A4F8029000F06DFA00F063FA202063
:102BC0002080002060802120208000206080302034
:102BD0002080072060803120208067803220208084
:102BE00040F2051060803521218040F2062161808D
:102BF0003622228040F608026280372323806180DB
:102C00003821218040F2045161803921218007213F
:102C100061803C21218060803D20208062805020A6
:102C200020800020608051202080EF206080522092
:102C300020800020608053202080668060202080DB
:102C40004FF42740608061202080012060806A204E
:102C500020800020608080202080002060808120F3
:102C600020800020608082202080002060808320DF
:102C700020800020608084202080002060808520CB
:102C80002080002060809020208010206080922092
:102C90002080002060809320208003206080952089
:102CA00020804FF488706080972020800020608012
:102CB00098202080002060800320208065800720ED
:102CC000208040F23310D2E00098472840F0D080B6
:102CD000EA2000F0D3F9EB20208020206080EC2057
:102CE00020800C206080ED202080C4206080E820BF
:102CF000208040206080E920208038206080F12002
:102D000000F0BDF8F2202080102060802720208075
:102D1000A3206080402000F0B1F9412000F0AEF91E
:102D2000422000F0ACF84320208012206080442034
:102D30002080102060804520208026206080462052
:102D40002080082060804720208053206080482019
:102D500020800220608049202080152060804A2049
:102D60002080192060804B202080192060804C201A
:102D70002080162060805020208019206080512003
:102D800020802F206080522020802D2060805320C2
:102D900020803E206080542020803F20608055208D
:102DA00020803F206080562020802C20608057208B
:102DB0002080772060805820208009206080592062
:102DC0002080062060805A202080062060805B20C2
:102DD00020800A2060805C2020801D2060805D2093
:102DE0002080CC2060801B20208060801A2000F092
:102DF00046F8242020802F20608025202080572026
:102E00006080232020808A20608018202080362047
:102E10006080192000F033F800F030F91F20208086
:102E2000882000F039F81F202080802000F034F83E
:102E30001F202080902000F02FF81F202080D0201D
:102E400000F02AF81720208005206080362000F04E
:102E500015F92820208038206080322000F0CAF93F
:102E6000282020803C206080162020800820608060
:102E7000DFF8A00300F108014160BDE8F18F208078
:102E800001206080704710202080A4F802B011203B
:102E90002080A4F802A0704760800A2000F0AAB940
:102EA000002323800123638023806280022222800A
:102EB00061800321218070470421218000216180ED
:102EC00008212180608009202080002060800A2065
:102ED0002080002060800C202080002060800D2059
:102EE0002080002060800F20208000206080102043
:102EF000208000206080112020800020608012202F
:102F0000208000206080132020800020608014201A
:102F100000F070B901B4DFF8FC02BDF800100180C8
:102F200001B07047DFF8EC024068704710B5044606
:102F300040F23F11002000F00AF84FF0D04022216B
:102F400001804FF496314480491EFCD110BD4FF0F2
:102F5000D042202313805080212087E02DE9F843C0
:102F60008846914600260446FFF7F1FF4FF0D04710
:102F7000DFF8A05205E0641C4146A0B2FFF7E7FF6E
:102F8000761C6968C888864223D2222038800022B5
:102F900002E028887880521C8B889A42EBD239F85C
:102FA00016C080204FF00C0E93FBFEFE4FEACE0EB3
:102FB00000FA0EF010411CEA000F01D10D2B06D3D0
:102FC000012090401CEA000FE3D10D2BE1D368886B
:102FD000E0E7BDE8F18310B5DFF838325B68203AEE
:102FE000D2B2DC8862431B6803EB4202BDE81040AA
:102FF000B4E7F8B504460D4640F23F16DFF8147208
:1030000008E015F8012B31462046FFF7E4FF786809
:103010008088361A287830B1B6B2701C80B27968D0
:1030200089888842EDDAF1BD38B54FF0D04490423E
:1030300004D350252580821A521C02E0502222809F
:1030400000226280512222806080994204D3522261
:103050002280CA1A521C02E0522222800022628080
:10306000532222806180BDE8344070E71080518097
:1030700070474FF0D040222101807047208000200F
:103080006080704713202080A4F8028029202080CF
:10309000132060800520ADE01CB501217820FFF7EA
:1030A00061FC4CF23370009002208DF804008DF822
:1030B00005000020ADF80600574C00F066F800F05F
:1030C00042F80C22012100F040F80C22042100F00B
:1030D0003CF80C22052100F038F800F048F800F028
:1030E00041F800F049F800F038F800F031F800F04D
:1030F00048F80C22072100F028F800F038F800F01A
:1031000031F800F039F80C220B2100F01EF80C22E7
:103110000C2100F01AF80C220D2100F016F800F036
:103120001CF800F015F8012000903C4C00F02DF840
:1031300000F009F84FF480600090394C00F025F859
:1031400000F01AF813BD0C220021204600F04ABA04
:103150000C220F21204600F045BA0C220E212046F9
:1031600000F040BA0C220921204600F03BBA0C22A4
:103170000821204600F036BA0C220A21204600F031
:1031800031BA4FF680700090264C00A9204600F01E
:10319000F1B900B597B001210120FFF7F5FB01203F
:1031A00000900020019009200290002003900490DC
:1031B00005900690042007900020089009901020A8
:1031C0000A9000200B900C900D900E900F904FF4F1
:1031D00080501090002011901290139000A814902D
:1031E000159007A800F09EFA0121042000F0F5FADE
:1031F00017B000BD01B481B00020009001980A49C9
:10320000484301E00098401E009000980028F9D142
:1032100002B0704718000020000C02400014024069
:103220000018024000100240A0860100F0B50168BD
:103230004908490001600021016041608160C1606E
:103240000161212141615149514A904226D04FF4F8
:103250007462504B984228D04FF474134E4CA042E5
:1032600028D04FF074644D4DA84228D04C4D4D4E9F
:10327000B04229D04C4E4D4FB8422AD04C4FDFF8C7
:1032800034C160452AD04FF03D5CDFF82CE1704539
:1032900029D04A49DFF828E1704502D13D20086075
:1032A000F0BDDFF820E1704501D10A60F0BD464A6B
:1032B000904201D10B60F0BD444A904201D10C60B4
:1032C000F0BD434A904201D14D60F0BD414A904269
:1032D00001D14E60F0BD404A904201D14F60F0BD37
:1032E0003E4A904201D1C1F804C0F0BD10B5026859
:1032F0003B4B1A400B681A43CB681A434B691A437D
:103300008B691A43CB691A430B6A1A434B6A1A43F7
:103310008B6A1A434B6B1A438B6B1A4302604269E8
:10332000D2080B6BCC6A234353EAC20242610A699A
:1033300042604A6882608968C16010BD00290168E6
:1033400012BF41F0010149084900016070470022A5
:103350001B4B984234BF234823488B004CBF406826
:10336000006808402149084218BF012210467047F2
:10337000134A904234BF1B481B481C4A0A4089002C
:1033800001D5C2607047826070470000086002404B
:1033900010600240286002404060024058600240D5
:1033A0003D00002070600240400F00208860024015
:1033B00000003D20A0600240B86002400864024066
:1033C0001064024028640240406402405864024095
:1033D0007064024088640240A0640240B864024005
:1033E0003F801CF000600240006402407D0F7D0FB2
:1033F00015490A68154B1A400A600A68144B1A40AE
:1034000003881A4343881A4383881A43C3881A439C
:1034100003891A4343891A4380891043086070471F
:1034200009490028086814BF40F4804020F4804017
:103430000860704704490028086812BF40F0010086
:10344000400840000860704700000550FEBFFFFFC5
:103450000DF0FFFF4268434B1A400B7942EA03220A
:103460000B681A43426082683F4B1A400B691A434B
:10347000CB681A438B681A434B7942EA4302826055
:10348000C26A22F47002097D491EC9B242EA0151A2
:10349000C162704700210160017141718160C160AA
:1034A000016101210175704730490A68304B1A40AB
:1034B00003681A4343681A4383681A43C068104379
:1034C000086070470029816812BF41F00101490876
:1034D00049008160704770B507240A290BD3A1F118
:1034E0000A0505EB4505C668AC4026EA0404AB4076
:1034F0002343C36008E001EB41050669AC4026EABE
:103500000404AB40234303611F23072A0AD2521E3F
:1035100002EB8202446B934024EA03039140194377
:10352000416370BD0D2A0AD2D21F02EB8202046BE6
:10353000934024EA030391401943016370BD0D3A9F
:1035400002EB8202C46A934024EA030391401943C8
:10355000C16270BD816841F0804181607047C06C7C
:1035600080B27047FFFEFFFCFDF7FFC0042301405F
:10357000E030FCFFF0B50022012393400C681C40B2
:103580009C422BD154000325A540ED4306682E40F4
:10359000066006680F79A7403E4306600E79012E4B
:1035A00018BF022E11D186682E40866086684F793A
:1035B000A7403E438660466826EA030343604368AB
:1035C0008E799640B6B233434360C3682B40C360E4
:1035D000C368CD7905FA04F42343C360521C102A52
:1035E000CAD3F0BD10B5CB1000EB830001F007018A
:1035F0008900036A0F248C40A3430362036A02FA22
:1036000001F11943016210BD30B501F003029200CF
:1036100021F00301054BCC580F259540AC43CC500D
:10362000CC5890402043C85030BD000008380140BD
:1036300030B50168CB431F4982792AB30A46146822
:103640002340136053680468A34353600379CC1884
:10365000236805682B43236093680468A343936041
:10366000D3680468A343D36043790568102B07D15E
:10367000916829439160D16800680843D06030BDEB
:10368000CC182068284303E000790C182068184003
:10369000206030BD0021074A13680340526902428E
:1036A0001CBF002B01210846704700BF024908607B
:1036B00070470000003C0140143C014070B50378A5
:1036C0001A460121C478ECB1124B1B6803F4E06385
:1036D000C3F5E0631B0A4478C3F10405AC40857868
:1036E0000F2646FA03F32B4023431B010A4C1355C4
:1036F00000784211094B00F01F0001FA00F043F876
:10370000220070BD5011064A03F01F03994042F891
:10371000201070BD0CED00E000E400E000E100E0EE
:1037200080E100E010B54FF02041426883681A4301
:10373000C3681A4303691A4343691A4383691A43E6
:10374000C3691A43036A1A43436A1A43836A1A43D2
:10375000C36A1A43036B1A43036841F82320826843
:10376000082A06D1026851F8223043F0400341F89C
:103770002230416B0A684B6842EA03128B6842EAC6
:103780000322CB6842EA03420B6942EA03524B69C7
:1037900042EA03628969114302689200A2F1C042C1
:1037A00051600168134AC36AB3F5804F10D1806B32
:1037B0000368446843EA0413846843EA0423046901
:1037C00043EA0453446943EA04638069184301E00F
:1037D0006FF0704042F8210010BD4FF020420029E8
:1037E00052F8201012BF41F00101034B194042F87A
:1037F00020107047040100A0FEFF0F0082B02C488B
:10380000016841F001010160002181600168294ADD
:103810001140016028494160016821F48021016064
:103820000021C16001910091016841F48031016083
:10383000016801F4003100910199491C019100993E
:1038400019B90199B1F5A06FF2D10168490C01F0E5
:10385000010100910099012923D18168816081686B
:1038600041F400418160816841F4A05181601349B5
:103870004160016841F08071016001688901FCD5F7
:103880000F4940F203720A608168890889008160EB
:10389000816841F002018160816801F00C01082912
:1038A000FAD108484FF00061016002B07047000093
:1038B00000380240FFFFF6FE10300024193C40059E
:1038C000003C024008ED00E07047FEE7FEE7FEE73F
:1038D000FEE7704770477047FEF7CCBB80B54FF4EA
:1038E0000040FFF7D7FE48B105480178403101702C
:1038F0004FF40040BDE80240FFF7D7BE01BD000015
:103900000100002010B450F8041B81B102681218A5
:10391000001D50F8043BDC0744BFA9F10104E31883
:1039200052F8044B43F8044B091FF9D1EBE710BCE4
:10393000704750F8041B61B150F8042BD30744BF03
:10394000A9F101039A18002342F8043B091FFAD198
:10395000EFE7704710B5084979441C31074C7C44A7
:103960001A34A14206D0081D0A685118884701463A
:10397000A142F8D110BD00BF0800000028000000DF
:10398000B3FFFFFF0400000058000020000000000B
:1039900075FFFFFF58000000D0010000000000206C
:1039A0000000000000F009F8002801D0FFF7D2FF66
:1039B0000020FEF74DF900F002F80120704700F0FA
:1039C00001B800000746384600F002F8FBE70000A7
:1039D00080B5C046C046024A11001820ABBEFBE7C6
:1039E000260002000148804701480047FD370008D3
:1039F000F5390008C046C046C046C046FFF7D2FFB2
:103A0000FFF762BFFFF761BFFFF760BFFFF75FBF60
:103A1000FFF75EBFFFF75DBFFFF75CBFFFF75BBF60
:103A2000FFF75ABFFFF7FEBFFFF7FEBFFFF7FEBF6E
:103A3000FFF7FEBFFFF7FEBFFFF7FEBFFFF7FEBFBA
:103A4000FFF7FEBFFFF7FEBFFFF7FEBFFFF7FEBFAA
:103A5000FFF7FEBFFFF7FEBFFFF7FEBFFFF7FEBF9A
:103A6000FFF7FEBFFFF7FEBFFFF7FEBFFFF7FEBF8A
:103A7000FFF7FEBFFFF7FEBFFFF7FEBFFFF7FEBF7A
:103A8000FFF7FEBFFFF7FEBFFFF7FEBFFFF7FEBF6A
:103A9000FFF7FEBFFFF7FEBFFFF7FEBFFFF7FEBF5A
:103AA000FFF7FEBFFFF7FEBFFFF7FEBFFFF7FEBF4A
:103AB000FFF7FEBFFFF7FEBFFFF7FEBFFFF7FEBF3A
:103AC000FFF7FEBFFFF70ABFFFF7FEBFFFF7FEBF1E
:103AD000FFF7FEBFFFF7FEBFFFF7FEBFFFF7FEBF1A
:103AE000FFF7FEBFFFF7FEBFFFF7FEBFFFF7FEBF0A
:103AF000FFF7FEBFFFF7FEBFFFF7FEBFFFF7FEBFFA
:103B0000FFF7FEBFFFF7FEBFFFF7FEBFFFF7FEBFE9
:103B1000FFF7FEBFFFF7FEBFFFF7FEBFFFF7FEBFD9
:103B2000FFF7FEBFFFF7FEBFFFF7FEBFFFF7FEBFC9
:103B3000FFF7FEBFFFF7FEBFFFF7FEBFFFF7FEBFB9
:103B4000FFF7FEBFFFF7FEBFFFF7FEBFFFF7FEBFA9
:103B5000FFF7FEBFFFF7FEBFFFF7FEBFFFF7FEBF99
:103B6000FFF7FEBFFFF7FEBF00CC00000000000023
:103B70000000000000000000000000000000000045
:103B80000000FFFF00000000840100081000180082
:103B900000140240001802400020024000080240C9
:103BA00000000000010203040102030406070809E3
:103BB00000000240000802400018024000300000EF
:04000005080039F5C1
:00000001FF
